{
  "contractName": "ERC721Dudes",
  "abi": [
    {
      "constant": true,
      "inputs": [
        {
          "name": "interfaceId",
          "type": "bytes4"
        }
      ],
      "name": "supportsInterface",
      "outputs": [
        {
          "name": "",
          "type": "bool"
        }
      ],
      "payable": false,
      "stateMutability": "view",
      "type": "function"
    },
    {
      "constant": true,
      "inputs": [
        {
          "name": "tokenId",
          "type": "uint256"
        }
      ],
      "name": "getApproved",
      "outputs": [
        {
          "name": "",
          "type": "address"
        }
      ],
      "payable": false,
      "stateMutability": "view",
      "type": "function"
    },
    {
      "constant": false,
      "inputs": [
        {
          "name": "to",
          "type": "address"
        },
        {
          "name": "tokenId",
          "type": "uint256"
        }
      ],
      "name": "approve",
      "outputs": [],
      "payable": false,
      "stateMutability": "nonpayable",
      "type": "function"
    },
    {
      "constant": false,
      "inputs": [
        {
          "name": "from",
          "type": "address"
        },
        {
          "name": "to",
          "type": "address"
        },
        {
          "name": "tokenId",
          "type": "uint256"
        }
      ],
      "name": "transferFrom",
      "outputs": [],
      "payable": false,
      "stateMutability": "nonpayable",
      "type": "function"
    },
    {
      "constant": false,
      "inputs": [
        {
          "name": "from",
          "type": "address"
        },
        {
          "name": "to",
          "type": "address"
        },
        {
          "name": "tokenId",
          "type": "uint256"
        }
      ],
      "name": "safeTransferFrom",
      "outputs": [],
      "payable": false,
      "stateMutability": "nonpayable",
      "type": "function"
    },
    {
      "constant": true,
      "inputs": [
        {
          "name": "tokenId",
          "type": "uint256"
        }
      ],
      "name": "ownerOf",
      "outputs": [
        {
          "name": "",
          "type": "address"
        }
      ],
      "payable": false,
      "stateMutability": "view",
      "type": "function"
    },
    {
      "constant": true,
      "inputs": [
        {
          "name": "owner",
          "type": "address"
        }
      ],
      "name": "balanceOf",
      "outputs": [
        {
          "name": "",
          "type": "uint256"
        }
      ],
      "payable": false,
      "stateMutability": "view",
      "type": "function"
    },
    {
      "constant": false,
      "inputs": [
        {
          "name": "from",
          "type": "address"
        },
        {
          "name": "to",
          "type": "address"
        },
        {
          "name": "tokenId",
          "type": "uint256"
        },
        {
          "name": "_data",
          "type": "bytes"
        }
      ],
      "name": "safeTransferFrom",
      "outputs": [],
      "payable": false,
      "stateMutability": "nonpayable",
      "type": "function"
    },
    {
      "constant": true,
      "inputs": [],
      "name": "ERC1155_RECEIVED",
      "outputs": [
        {
          "name": "",
          "type": "bytes4"
        }
      ],
      "payable": false,
      "stateMutability": "view",
      "type": "function"
    },
    {
      "constant": true,
      "inputs": [],
      "name": "ERC1155_BATCH_RECEIVED",
      "outputs": [
        {
          "name": "",
          "type": "bytes4"
        }
      ],
      "payable": false,
      "stateMutability": "view",
      "type": "function"
    },
    {
      "anonymous": false,
      "inputs": [
        {
          "indexed": true,
          "name": "_operator",
          "type": "address"
        },
        {
          "indexed": true,
          "name": "_from",
          "type": "address"
        },
        {
          "indexed": true,
          "name": "_to",
          "type": "address"
        },
        {
          "indexed": false,
          "name": "_id",
          "type": "uint256"
        },
        {
          "indexed": false,
          "name": "_value",
          "type": "uint256"
        }
      ],
      "name": "TransferSingle",
      "type": "event"
    },
    {
      "anonymous": false,
      "inputs": [
        {
          "indexed": true,
          "name": "from",
          "type": "address"
        },
        {
          "indexed": true,
          "name": "to",
          "type": "address"
        },
        {
          "indexed": true,
          "name": "tokenId",
          "type": "uint256"
        }
      ],
      "name": "Transfer",
      "type": "event"
    },
    {
      "anonymous": false,
      "inputs": [
        {
          "indexed": true,
          "name": "owner",
          "type": "address"
        },
        {
          "indexed": true,
          "name": "approved",
          "type": "address"
        },
        {
          "indexed": true,
          "name": "tokenId",
          "type": "uint256"
        }
      ],
      "name": "Approval",
      "type": "event"
    },
    {
      "anonymous": false,
      "inputs": [
        {
          "indexed": true,
          "name": "owner",
          "type": "address"
        },
        {
          "indexed": true,
          "name": "operator",
          "type": "address"
        },
        {
          "indexed": false,
          "name": "approved",
          "type": "bool"
        }
      ],
      "name": "ApprovalForAll",
      "type": "event"
    },
    {
      "constant": false,
      "inputs": [
        {
          "name": "_operator",
          "type": "address"
        },
        {
          "name": "_approved",
          "type": "bool"
        }
      ],
      "name": "setApprovalForAll",
      "outputs": [],
      "payable": false,
      "stateMutability": "nonpayable",
      "type": "function"
    },
    {
      "constant": true,
      "inputs": [
        {
          "name": "_owner",
          "type": "address"
        },
        {
          "name": "_operator",
          "type": "address"
        }
      ],
      "name": "isApprovedForAll",
      "outputs": [
        {
          "name": "",
          "type": "bool"
        }
      ],
      "payable": false,
      "stateMutability": "view",
      "type": "function"
    },
    {
      "constant": false,
      "inputs": [
        {
          "name": "to",
          "type": "address"
        },
        {
          "name": "tokenId",
          "type": "uint256"
        }
      ],
      "name": "mintWithTokenHash",
      "outputs": [
        {
          "name": "",
          "type": "bool"
        }
      ],
      "payable": false,
      "stateMutability": "nonpayable",
      "type": "function"
    }
  ],
  "bytecode": "0x608060405261003f6301ffc9a77c01000000000000000000000000000000000000000000000000000000000261007f640100000000026401000000009004565b61007a6380ac58cd7c01000000000000000000000000000000000000000000000000000000000261007f640100000000026401000000009004565b61013c565b63ffffffff7c010000000000000000000000000000000000000000000000000000000002817bffffffffffffffffffffffffffffffffffffffffffffffffffffffff1916141515156100d057600080fd5b6001600080837bffffffffffffffffffffffffffffffffffffffffffffffffffffffff19167bffffffffffffffffffffffffffffffffffffffffffffffffffffffff1916815260200190815260200160002060006101000a81548160ff02191690831515021790555050565b6113b38061014b6000396000f3fe608060405234801561001057600080fd5b50600436106100ec576000357c0100000000000000000000000000000000000000000000000000000000900480636352211e116100a9578063b88d4fde11610083578063b88d4fde1461046a578063e0a5c9491461056f578063e985e9c5146105cb578063fc67bf1c14610647576100ec565b80636352211e1461035457806370a08231146103c2578063a22cb4651461041a576100ec565b8063016901de146100f157806301ffc9a714610157578063081812fc146101bc578063095ea7b31461022a57806323b872dd1461027857806342842e0e146102e6575b600080fd5b61013d6004803603604081101561010757600080fd5b81019080803573ffffffffffffffffffffffffffffffffffffffff169060200190929190803590602001909291905050506106a3565b604051808215151515815260200191505060405180910390f35b6101a26004803603602081101561016d57600080fd5b8101908080357bffffffffffffffffffffffffffffffffffffffffffffffffffffffff191690602001909291905050506106b9565b604051808215151515815260200191505060405180910390f35b6101e8600480360360208110156101d257600080fd5b8101908080359060200190929190505050610720565b604051808273ffffffffffffffffffffffffffffffffffffffff1673ffffffffffffffffffffffffffffffffffffffff16815260200191505060405180910390f35b6102766004803603604081101561024057600080fd5b81019080803573ffffffffffffffffffffffffffffffffffffffff16906020019092919080359060200190929190505050610771565b005b6102e46004803603606081101561028e57600080fd5b81019080803573ffffffffffffffffffffffffffffffffffffffff169060200190929190803573ffffffffffffffffffffffffffffffffffffffff169060200190929190803590602001909291905050506108b6565b005b610352600480360360608110156102fc57600080fd5b81019080803573ffffffffffffffffffffffffffffffffffffffff169060200190929190803573ffffffffffffffffffffffffffffffffffffffff169060200190929190803590602001909291905050506108db565b005b6103806004803603602081101561036a57600080fd5b81019080803590602001909291905050506108fc565b604051808273ffffffffffffffffffffffffffffffffffffffff1673ffffffffffffffffffffffffffffffffffffffff16815260200191505060405180910390f35b610404600480360360208110156103d857600080fd5b81019080803573ffffffffffffffffffffffffffffffffffffffff16906020019092919050505061097a565b6040518082815260200191505060405180910390f35b6104686004803603604081101561043057600080fd5b81019080803573ffffffffffffffffffffffffffffffffffffffff169060200190929190803515159060200190929190505050610a05565b005b61056d6004803603608081101561048057600080fd5b81019080803573ffffffffffffffffffffffffffffffffffffffff169060200190929190803573ffffffffffffffffffffffffffffffffffffffff16906020019092919080359060200190929190803590602001906401000000008111156104e757600080fd5b8201836020820111156104f957600080fd5b8035906020019184600183028401116401000000008311171561051b57600080fd5b91908080601f016020809104026020016040519081016040528093929190818152602001838380828437600081840152601f19601f820116905080830192505050505050509192919290505050610b06565b005b610577610b2e565b60405180827bffffffffffffffffffffffffffffffffffffffffffffffffffffffff19167bffffffffffffffffffffffffffffffffffffffffffffffffffffffff1916815260200191505060405180910390f35b61062d600480360360408110156105e157600080fd5b81019080803573ffffffffffffffffffffffffffffffffffffffff169060200190929190803573ffffffffffffffffffffffffffffffffffffffff169060200190929190505050610b55565b604051808215151515815260200191505060405180910390f35b61064f610be9565b60405180827bffffffffffffffffffffffffffffffffffffffffffffffffffffffff19167bffffffffffffffffffffffffffffffffffffffffffffffffffffffff1916815260200191505060405180910390f35b60006106af8383610c10565b6001905092915050565b6000806000837bffffffffffffffffffffffffffffffffffffffffffffffffffffffff19167bffffffffffffffffffffffffffffffffffffffffffffffffffffffff1916815260200190815260200160002060009054906101000a900460ff169050919050565b600061072b82610d5a565b151561073657600080fd5b6002600083815260200190815260200160002060009054906101000a900473ffffffffffffffffffffffffffffffffffffffff169050919050565b600061077c826108fc565b90508073ffffffffffffffffffffffffffffffffffffffff168373ffffffffffffffffffffffffffffffffffffffff16141515156107b957600080fd5b8073ffffffffffffffffffffffffffffffffffffffff163373ffffffffffffffffffffffffffffffffffffffff1614806107f957506107f88133610b55565b5b151561080457600080fd5b826002600084815260200190815260200160002060006101000a81548173ffffffffffffffffffffffffffffffffffffffff021916908373ffffffffffffffffffffffffffffffffffffffff160217905550818373ffffffffffffffffffffffffffffffffffffffff168273ffffffffffffffffffffffffffffffffffffffff167f8c5be1e5ebec7d5bd14f71427d1e84f3dd0314c0f7b2291e5b200ac8c7c3b92560405160405180910390a4505050565b6108c03382610dcc565b15156108cb57600080fd5b6108d6838383610e61565b505050565b6108f78383836020604051908101604052806000815250610b06565b505050565b6000806001600084815260200190815260200160002060009054906101000a900473ffffffffffffffffffffffffffffffffffffffff169050600073ffffffffffffffffffffffffffffffffffffffff168173ffffffffffffffffffffffffffffffffffffffff161415151561097157600080fd5b80915050919050565b60008073ffffffffffffffffffffffffffffffffffffffff168273ffffffffffffffffffffffffffffffffffffffff16141515156109b757600080fd5b6109fe600360008473ffffffffffffffffffffffffffffffffffffffff1673ffffffffffffffffffffffffffffffffffffffff168152602001908152602001600020611028565b9050919050565b80600560003373ffffffffffffffffffffffffffffffffffffffff1673ffffffffffffffffffffffffffffffffffffffff16815260200190815260200160002060008473ffffffffffffffffffffffffffffffffffffffff1673ffffffffffffffffffffffffffffffffffffffff16815260200190815260200160002060006101000a81548160ff0219169083151502179055508173ffffffffffffffffffffffffffffffffffffffff163373ffffffffffffffffffffffffffffffffffffffff167f17307eab39ab6107e8899845ad3d59bd9653f200f220920489ca2b5937696c3183604051808215151515815260200191505060405180910390a35050565b610b118484846108b6565b610b1d84848484611036565b1515610b2857600080fd5b50505050565b63f23a6e617c01000000000000000000000000000000000000000000000000000000000281565b6000600560008473ffffffffffffffffffffffffffffffffffffffff1673ffffffffffffffffffffffffffffffffffffffff16815260200190815260200160002060008373ffffffffffffffffffffffffffffffffffffffff1673ffffffffffffffffffffffffffffffffffffffff16815260200190815260200160002060009054906101000a900460ff16905092915050565b63bc197c817c01000000000000000000000000000000000000000000000000000000000281565b600073ffffffffffffffffffffffffffffffffffffffff168273ffffffffffffffffffffffffffffffffffffffff1614151515610c4c57600080fd5b610c5581610d5a565b151515610c6157600080fd5b816001600083815260200190815260200160002060006101000a81548173ffffffffffffffffffffffffffffffffffffffff021916908373ffffffffffffffffffffffffffffffffffffffff160217905550610cfa600360008473ffffffffffffffffffffffffffffffffffffffff1673ffffffffffffffffffffffffffffffffffffffff168152602001908152602001600020611259565b808273ffffffffffffffffffffffffffffffffffffffff16600073ffffffffffffffffffffffffffffffffffffffff167fddf252ad1be2c89b69c2b068fc378daa952ba7f163c4a11628f55a4df523b3ef60405160405180910390a45050565b6000806001600084815260200190815260200160002060009054906101000a900473ffffffffffffffffffffffffffffffffffffffff169050600073ffffffffffffffffffffffffffffffffffffffff168173ffffffffffffffffffffffffffffffffffffffff161415915050919050565b600080610dd8836108fc565b90508073ffffffffffffffffffffffffffffffffffffffff168473ffffffffffffffffffffffffffffffffffffffff161480610e4757508373ffffffffffffffffffffffffffffffffffffffff16610e2f84610720565b73ffffffffffffffffffffffffffffffffffffffff16145b80610e585750610e578185610b55565b5b91505092915050565b8273ffffffffffffffffffffffffffffffffffffffff16610e81826108fc565b73ffffffffffffffffffffffffffffffffffffffff16141515610ea357600080fd5b600073ffffffffffffffffffffffffffffffffffffffff168273ffffffffffffffffffffffffffffffffffffffff1614151515610edf57600080fd5b610ee88161126f565b610f2f600360008573ffffffffffffffffffffffffffffffffffffffff1673ffffffffffffffffffffffffffffffffffffffff16815260200190815260200160002061132f565b610f76600360008473ffffffffffffffffffffffffffffffffffffffff1673ffffffffffffffffffffffffffffffffffffffff168152602001908152602001600020611259565b816001600083815260200190815260200160002060006101000a81548173ffffffffffffffffffffffffffffffffffffffff021916908373ffffffffffffffffffffffffffffffffffffffff160217905550808273ffffffffffffffffffffffffffffffffffffffff168473ffffffffffffffffffffffffffffffffffffffff167fddf252ad1be2c89b69c2b068fc378daa952ba7f163c4a11628f55a4df523b3ef60405160405180910390a4505050565b600081600001549050919050565b60006110578473ffffffffffffffffffffffffffffffffffffffff16611352565b15156110665760019050611251565b60008473ffffffffffffffffffffffffffffffffffffffff1663150b7a02338887876040518563ffffffff167c0100000000000000000000000000000000000000000000000000000000028152600401808573ffffffffffffffffffffffffffffffffffffffff1673ffffffffffffffffffffffffffffffffffffffff1681526020018473ffffffffffffffffffffffffffffffffffffffff1673ffffffffffffffffffffffffffffffffffffffff16815260200183815260200180602001828103825283818151815260200191508051906020019080838360005b8381101561115d578082015181840152602081019050611142565b50505050905090810190601f16801561118a5780820380516001836020036101000a031916815260200191505b5095505050505050602060405180830381600087803b1580156111ac57600080fd5b505af11580156111c0573d6000803e3d6000fd5b505050506040513d60208110156111d657600080fd5b8101908080519060200190929190505050905063150b7a027c0100000000000000000000000000000000000000000000000000000000027bffffffffffffffffffffffffffffffffffffffffffffffffffffffff1916817bffffffffffffffffffffffffffffffffffffffffffffffffffffffff1916149150505b949350505050565b6001816000016000828254019250508190555050565b600073ffffffffffffffffffffffffffffffffffffffff166002600083815260200190815260200160002060009054906101000a900473ffffffffffffffffffffffffffffffffffffffff1673ffffffffffffffffffffffffffffffffffffffff1614151561132c5760006002600083815260200190815260200160002060006101000a81548173ffffffffffffffffffffffffffffffffffffffff021916908373ffffffffffffffffffffffffffffffffffffffff1602179055505b50565b6113476001826000015461136590919063ffffffff16565b816000018190555050565b600080823b905060008111915050919050565b600082821115151561137657600080fd5b60008284039050809150509291505056fea165627a7a7230582012168045897a3be3bc963fa3ea0934c2f80273c3e788d3c6a5521d0eb7d4efd90029",
  "source": "pragma solidity ^0.5.4;\r\n\r\nimport \"openzeppelin-solidity/contracts/math/SafeMath.sol\";\r\nimport \"openzeppelin-solidity/contracts/utils/Address.sol\";\r\nimport \"openzeppelin-solidity/contracts/introspection/IERC165.sol\";\r\nimport \"openzeppelin-solidity/contracts/token/ERC721/ERC721.sol\";\r\n// import \"./IERC721Receiver.sol\";\r\n\r\n// A sample implementation of core ERC1155 function.\r\ncontract ERC721Dudes is ERC721\r\n{\r\n    using SafeMath for uint256;\r\n    using Address for address;\r\n\r\n    bytes4 constant public ERC1155_RECEIVED = 0xf23a6e61;\r\n    bytes4 constant public ERC1155_BATCH_RECEIVED = 0xbc197c81;\r\n\r\n    // owner => (operator => approved)\r\n    mapping (address => mapping(address => bool)) internal operatorApproval;\r\n\r\nevent TransferSingle(address indexed _operator, address indexed _from, address indexed _to, uint256 _id, uint256 _value);\r\n\r\n/////////////////////////////////////////// ERC1155 //////////////////////////////////////////////\r\n    /**\r\n        @notice Transfers value amount of an _id from the _from address to the _to addresses specified. Each parameter array should be the same length, with each index correlating.\r\n        @dev MUST emit TransferSingle event on success.\r\n        Caller must be approved to manage the _from account's tokens (see isApprovedForAll).\r\n        MUST Throw if `_to` is the zero address.\r\n        MUST Throw if `_id` is not a valid token ID.\r\n        MUST Throw on any other error.\r\n        When transfer is complete, this function MUST check if `_to` is a smart contract (code size > 0). If so, it MUST call `onERC1155Received` on `_to`\r\n        and revert if the return value is not `bytes4(keccak256(\"onERC1155Received(address,address,uint256,uint256,bytes)\"))`.\r\n        @param _from    Source addresses\r\n        @param _to      Target addresses\r\n        @param _id      ID of the token type\r\n        @param _value   Transfer amount\r\n        @param _data    Additional data with no specified format, sent in call to `_to`\r\n    */\r\n    // function safeTransferFrom(address _from, address _to, uint256 _id, uint256 _value, bytes calldata _data) external {\r\n\r\n    //     require(_to != address(0x0), \"_to must be non-zero.\");\r\n    //     require(_from == msg.sender || operatorApproval[_from][msg.sender] == true, \"Need operator approval for 3rd party transfers.\");\r\n\r\n\r\n    //     emit TransferSingle(msg.sender, _from, _to, _id, _value);\r\n\r\n    //     require(IERC721Receiver(_to).onERC721Received(msg.sender, _from, _id, _data) == ERC1155_RECEIVED, \"Receiver contract did not accept the transfer.\");\r\n    // }\r\n\r\n    /**\r\n        @notice Enable or disable approval for a third party (\"operator\") to manage all of the caller's tokens.\r\n        @dev MUST emit the ApprovalForAll event on success.\r\n        @param _operator  Address to add to the set of authorized operators\r\n        @param _approved  True if the operator is approved, false to revoke approval\r\n    */\r\n    function setApprovalForAll(address _operator, bool _approved) public {\r\n        operatorApproval[msg.sender][_operator] = _approved;\r\n        emit ApprovalForAll(msg.sender, _operator, _approved);\r\n    }\r\n\r\n    /**\r\n        @notice Queries the approval status of an operator for a given owner.\r\n        @param _owner     The owner of the Tokens\r\n        @param _operator  Address of authorized operator\r\n        @return           True if the operator is approved, false if not\r\n    */\r\n    function isApprovedForAll(address _owner, address _operator) public view returns (bool) {\r\n        return operatorApproval[_owner][_operator];\r\n    }\r\n\r\n    function mintWithTokenHash(address to, uint256 tokenId) public returns (bool) {\r\n        _mint(to, tokenId);\r\n        return true;\r\n    }\r\n}",
  "sourcePath": "C:/Projects/Finturi/BlockDudes/Eth/contracts/ERC721/ERC721Dudes.sol",
  "compiler": {
    "name": "solc",
    "version": "0.5.4+commit.9549d8ff.Emscripten.clang"
  },
  "schemaVersion": "3.0.6",
  "updatedAt": "2019-04-12T19:34:51.740Z",
  "devdoc": {
    "methods": {
      "approve(address,uint256)": {
        "details": "Approves another address to transfer the given token ID The zero address indicates there is no approved address. There can only be one approved address per token at a given time. Can only be called by the token owner or an approved operator.",
        "params": {
          "to": "address to be approved for the given token ID",
          "tokenId": "uint256 ID of the token to be approved"
        }
      },
      "balanceOf(address)": {
        "details": "Gets the balance of the specified address",
        "params": {
          "owner": "address to query the balance of"
        },
        "return": "uint256 representing the amount owned by the passed address"
      },
      "getApproved(uint256)": {
        "details": "Gets the approved address for a token ID, or zero if no address set Reverts if the token ID does not exist.",
        "params": {
          "tokenId": "uint256 ID of the token to query the approval of"
        },
        "return": "address currently approved for the given token ID"
      },
      "isApprovedForAll(address,address)": {
        "params": {
          "_operator": "Address of authorized operator\r",
          "_owner": "The owner of the Tokens\r"
        },
        "return": "True if the operator is approved, false if not\r"
      },
      "ownerOf(uint256)": {
        "details": "Gets the owner of the specified token ID",
        "params": {
          "tokenId": "uint256 ID of the token to query the owner of"
        },
        "return": "address currently marked as the owner of the given token ID"
      },
      "safeTransferFrom(address,address,uint256)": {
        "details": "Safely transfers the ownership of a given token ID to another address If the target address is a contract, it must implement `onERC721Received`, which is called upon a safe transfer, and return the magic value `bytes4(keccak256(\"onERC721Received(address,address,uint256,bytes)\"))`; otherwise, the transfer is reverted. Requires the msg.sender to be the owner, approved, or operator",
        "params": {
          "from": "current owner of the token",
          "to": "address to receive the ownership of the given token ID",
          "tokenId": "uint256 ID of the token to be transferred"
        }
      },
      "safeTransferFrom(address,address,uint256,bytes)": {
        "details": "Safely transfers the ownership of a given token ID to another address If the target address is a contract, it must implement `onERC721Received`, which is called upon a safe transfer, and return the magic value `bytes4(keccak256(\"onERC721Received(address,address,uint256,bytes)\"))`; otherwise, the transfer is reverted. Requires the msg.sender to be the owner, approved, or operator",
        "params": {
          "_data": "bytes data to send along with a safe transfer check",
          "from": "current owner of the token",
          "to": "address to receive the ownership of the given token ID",
          "tokenId": "uint256 ID of the token to be transferred"
        }
      },
      "setApprovalForAll(address,bool)": {
        "details": "MUST emit the ApprovalForAll event on success.\r",
        "params": {
          "_approved": "True if the operator is approved, false to revoke approval\r",
          "_operator": "Address to add to the set of authorized operators\r"
        }
      },
      "supportsInterface(bytes4)": {
        "details": "implement supportsInterface(bytes4) using a lookup table"
      },
      "transferFrom(address,address,uint256)": {
        "details": "Transfers the ownership of a given token ID to another address Usage of this method is discouraged, use `safeTransferFrom` whenever possible Requires the msg.sender to be the owner, approved, or operator",
        "params": {
          "from": "current owner of the token",
          "to": "address to receive the ownership of the given token ID",
          "tokenId": "uint256 ID of the token to be transferred"
        }
      }
    }
  },
  "userdoc": {
    "methods": {
      "isApprovedForAll(address,address)": {
        "notice": "Queries the approval status of an operator for a given owner.\r"
      },
      "setApprovalForAll(address,bool)": {
        "notice": "Enable or disable approval for a third party (\"operator\") to manage all of the caller's tokens.\r"
      }
    }
  }
}