{
  "contractName": "ERC721Dudes",
  "abi": [
    {
      "constant": true,
      "inputs": [
        {
          "name": "interfaceId",
          "type": "bytes4"
        }
      ],
      "name": "supportsInterface",
      "outputs": [
        {
          "name": "",
          "type": "bool"
        }
      ],
      "payable": false,
      "stateMutability": "view",
      "type": "function"
    },
    {
      "constant": true,
      "inputs": [
        {
          "name": "tokenId",
          "type": "uint256"
        }
      ],
      "name": "getApproved",
      "outputs": [
        {
          "name": "",
          "type": "address"
        }
      ],
      "payable": false,
      "stateMutability": "view",
      "type": "function"
    },
    {
      "constant": false,
      "inputs": [
        {
          "name": "to",
          "type": "address"
        },
        {
          "name": "tokenId",
          "type": "uint256"
        }
      ],
      "name": "approve",
      "outputs": [],
      "payable": false,
      "stateMutability": "nonpayable",
      "type": "function"
    },
    {
      "constant": false,
      "inputs": [
        {
          "name": "from",
          "type": "address"
        },
        {
          "name": "to",
          "type": "address"
        },
        {
          "name": "tokenId",
          "type": "uint256"
        }
      ],
      "name": "transferFrom",
      "outputs": [],
      "payable": false,
      "stateMutability": "nonpayable",
      "type": "function"
    },
    {
      "constant": true,
      "inputs": [
        {
          "name": "tokenId",
          "type": "uint256"
        }
      ],
      "name": "ownerOf",
      "outputs": [
        {
          "name": "",
          "type": "address"
        }
      ],
      "payable": false,
      "stateMutability": "view",
      "type": "function"
    },
    {
      "constant": true,
      "inputs": [
        {
          "name": "owner",
          "type": "address"
        }
      ],
      "name": "balanceOf",
      "outputs": [
        {
          "name": "",
          "type": "uint256"
        }
      ],
      "payable": false,
      "stateMutability": "view",
      "type": "function"
    },
    {
      "anonymous": false,
      "inputs": [
        {
          "indexed": true,
          "name": "from",
          "type": "address"
        },
        {
          "indexed": true,
          "name": "to",
          "type": "address"
        },
        {
          "indexed": true,
          "name": "tokenId",
          "type": "uint256"
        }
      ],
      "name": "Transfer",
      "type": "event"
    },
    {
      "anonymous": false,
      "inputs": [
        {
          "indexed": true,
          "name": "owner",
          "type": "address"
        },
        {
          "indexed": true,
          "name": "approved",
          "type": "address"
        },
        {
          "indexed": true,
          "name": "tokenId",
          "type": "uint256"
        }
      ],
      "name": "Approval",
      "type": "event"
    },
    {
      "anonymous": false,
      "inputs": [
        {
          "indexed": true,
          "name": "owner",
          "type": "address"
        },
        {
          "indexed": true,
          "name": "operator",
          "type": "address"
        },
        {
          "indexed": false,
          "name": "approved",
          "type": "bool"
        }
      ],
      "name": "ApprovalForAll",
      "type": "event"
    },
    {
      "constant": false,
      "inputs": [
        {
          "name": "_from",
          "type": "address"
        },
        {
          "name": "_to",
          "type": "address"
        },
        {
          "name": "_id",
          "type": "uint256"
        }
      ],
      "name": "safeTransferFrom",
      "outputs": [],
      "payable": false,
      "stateMutability": "nonpayable",
      "type": "function"
    },
    {
      "constant": false,
      "inputs": [
        {
          "name": "from",
          "type": "address"
        },
        {
          "name": "to",
          "type": "address"
        },
        {
          "name": "tokenId",
          "type": "uint256"
        },
        {
          "name": "_data",
          "type": "bytes"
        }
      ],
      "name": "safeTransferFrom",
      "outputs": [],
      "payable": false,
      "stateMutability": "nonpayable",
      "type": "function"
    },
    {
      "constant": true,
      "inputs": [
        {
          "name": "index",
          "type": "uint256"
        }
      ],
      "name": "getItem",
      "outputs": [
        {
          "components": [
            {
              "name": "tokenId",
              "type": "uint256"
            },
            {
              "name": "digest",
              "type": "bytes32"
            },
            {
              "name": "owner",
              "type": "address"
            }
          ],
          "name": "",
          "type": "tuple"
        }
      ],
      "payable": false,
      "stateMutability": "view",
      "type": "function"
    },
    {
      "constant": true,
      "inputs": [],
      "name": "getAllItemsLength",
      "outputs": [
        {
          "name": "",
          "type": "uint256"
        }
      ],
      "payable": false,
      "stateMutability": "view",
      "type": "function"
    },
    {
      "constant": false,
      "inputs": [
        {
          "name": "_operator",
          "type": "address"
        },
        {
          "name": "_approved",
          "type": "bool"
        }
      ],
      "name": "setApprovalForAll",
      "outputs": [],
      "payable": false,
      "stateMutability": "nonpayable",
      "type": "function"
    },
    {
      "constant": true,
      "inputs": [
        {
          "name": "_owner",
          "type": "address"
        },
        {
          "name": "_operator",
          "type": "address"
        }
      ],
      "name": "isApprovedForAll",
      "outputs": [
        {
          "name": "",
          "type": "bool"
        }
      ],
      "payable": false,
      "stateMutability": "view",
      "type": "function"
    },
    {
      "constant": false,
      "inputs": [
        {
          "name": "to",
          "type": "address"
        },
        {
          "name": "value",
          "type": "bytes32"
        }
      ],
      "name": "mintWithTokenHash",
      "outputs": [
        {
          "name": "",
          "type": "bool"
        }
      ],
      "payable": false,
      "stateMutability": "nonpayable",
      "type": "function"
    }
  ],
  "bytecode": "0x608060405261003f6301ffc9a77c01000000000000000000000000000000000000000000000000000000000261007f640100000000026401000000009004565b61007a6380ac58cd7c01000000000000000000000000000000000000000000000000000000000261007f640100000000026401000000009004565b61013c565b63ffffffff7c010000000000000000000000000000000000000000000000000000000002817bffffffffffffffffffffffffffffffffffffffffffffffffffffffff1916141515156100d057600080fd5b6001600080837bffffffffffffffffffffffffffffffffffffffffffffffffffffffff19167bffffffffffffffffffffffffffffffffffffffffffffffffffffffff1916815260200190815260200160002060006101000a81548160ff02191690831515021790555050565b611a3e8061014b6000396000f3fe608060405234801561001057600080fd5b50600436106100ec576000357c0100000000000000000000000000000000000000000000000000000000900480634bbc6d5a116100a9578063a22cb46511610083578063a22cb46514610265578063b611272614610281578063b88d4fde1461029f578063e985e9c5146102bb576100ec565b80634bbc6d5a146101d55780636352211e1461020557806370a0823114610235576100ec565b806301ffc9a7146100f1578063081812fc14610121578063095ea7b31461015157806323b872dd1461016d5780633129e7731461018957806342842e0e146101b9575b600080fd5b61010b60048036036101069190810190611528565b6102eb565b6040516101189190611794565b60405180910390f35b61013b6004803603610136919081019061157a565b610352565b604051610148919061172d565b60405180910390f35b61016b600480360361016691908101906114ec565b6103a3565b005b610187600480360361018291908101906113aa565b6104e8565b005b6101a3600480360361019e919081019061157a565b61050d565b6040516101b091906117ef565b60405180910390f35b6101d360048036036101ce91908101906113aa565b6105af565b005b6101ef60048036036101ea91908101906114b0565b6107a6565b6040516101fc9190611794565b60405180910390f35b61021f600480360361021a919081019061157a565b6108cb565b60405161022c919061172d565b60405180910390f35b61024f600480360361024a9190810190611345565b610949565b60405161025c919061180a565b60405180910390f35b61027f600480360361027a9190810190611474565b6109d4565b005b610289610ad1565b604051610296919061180a565b60405180910390f35b6102b960048036036102b491908101906113f9565b610adb565b005b6102d560048036036102d0919081019061136e565b610b03565b6040516102e29190611794565b60405180910390f35b6000806000837bffffffffffffffffffffffffffffffffffffffffffffffffffffffff19167bffffffffffffffffffffffffffffffffffffffffffffffffffffffff1916815260200190815260200160002060009054906101000a900460ff169050919050565b600061035d82610b97565b151561036857600080fd5b6002600083815260200190815260200160002060009054906101000a900473ffffffffffffffffffffffffffffffffffffffff169050919050565b60006103ae826108cb565b90508073ffffffffffffffffffffffffffffffffffffffff168373ffffffffffffffffffffffffffffffffffffffff16141515156103eb57600080fd5b8073ffffffffffffffffffffffffffffffffffffffff163373ffffffffffffffffffffffffffffffffffffffff16148061042b575061042a8133610b03565b5b151561043657600080fd5b826002600084815260200190815260200160002060006101000a81548173ffffffffffffffffffffffffffffffffffffffff021916908373ffffffffffffffffffffffffffffffffffffffff160217905550818373ffffffffffffffffffffffffffffffffffffffff168273ffffffffffffffffffffffffffffffffffffffff167f8c5be1e5ebec7d5bd14f71427d1e84f3dd0314c0f7b2291e5b200ac8c7c3b92560405160405180910390a4505050565b6104f23382610c09565b15156104fd57600080fd5b610508838383610c9e565b505050565b61051561123c565b60078281548110151561052457fe5b90600052602060002090600302016060604051908101604052908160008201548152602001600182015481526020016002820160009054906101000a900473ffffffffffffffffffffffffffffffffffffffff1673ffffffffffffffffffffffffffffffffffffffff1673ffffffffffffffffffffffffffffffffffffffff16815250509050919050565b600073ffffffffffffffffffffffffffffffffffffffff168273ffffffffffffffffffffffffffffffffffffffff1614151515610621576040517f08c379a0000000000000000000000000000000000000000000000000000000008152600401610618906117cf565b60405180910390fd5b3373ffffffffffffffffffffffffffffffffffffffff168373ffffffffffffffffffffffffffffffffffffffff1614806106e8575060011515600560008573ffffffffffffffffffffffffffffffffffffffff1673ffffffffffffffffffffffffffffffffffffffff16815260200190815260200160002060003373ffffffffffffffffffffffffffffffffffffffff1673ffffffffffffffffffffffffffffffffffffffff16815260200190815260200160002060009054906101000a900460ff161515145b1515610729576040517f08c379a0000000000000000000000000000000000000000000000000000000008152600401610720906117af565b60405180910390fd5b6000600660008381526020019081526020016000205490508260078281548110151561075157fe5b906000526020600020906003020160020160006101000a81548173ffffffffffffffffffffffffffffffffffffffff021916908373ffffffffffffffffffffffffffffffffffffffff16021790555050505050565b6000600960008154809291906001019190505550600060095490506107cb8482610e65565b6107d361123c565b6060604051908101604052808381526020018581526020018673ffffffffffffffffffffffffffffffffffffffff16815250905060078190806001815401808255809150509060018203906000526020600020906003020160009091929091909150600082015181600001556020820151816001015560408201518160020160006101000a81548173ffffffffffffffffffffffffffffffffffffffff021916908373ffffffffffffffffffffffffffffffffffffffff160217905550505050600854600660008481526020019081526020016000208190555060086000815480929190600101919050555060019250505092915050565b6000806001600084815260200190815260200160002060009054906101000a900473ffffffffffffffffffffffffffffffffffffffff169050600073ffffffffffffffffffffffffffffffffffffffff168173ffffffffffffffffffffffffffffffffffffffff161415151561094057600080fd5b80915050919050565b60008073ffffffffffffffffffffffffffffffffffffffff168273ffffffffffffffffffffffffffffffffffffffff161415151561098657600080fd5b6109cd600360008473ffffffffffffffffffffffffffffffffffffffff1673ffffffffffffffffffffffffffffffffffffffff168152602001908152602001600020610faf565b9050919050565b80600560003373ffffffffffffffffffffffffffffffffffffffff1673ffffffffffffffffffffffffffffffffffffffff16815260200190815260200160002060008473ffffffffffffffffffffffffffffffffffffffff1673ffffffffffffffffffffffffffffffffffffffff16815260200190815260200160002060006101000a81548160ff0219169083151502179055508173ffffffffffffffffffffffffffffffffffffffff163373ffffffffffffffffffffffffffffffffffffffff167f17307eab39ab6107e8899845ad3d59bd9653f200f220920489ca2b5937696c3183604051610ac59190611794565b60405180910390a35050565b6000600854905090565b610ae68484846104e8565b610af284848484610fbd565b1515610afd57600080fd5b50505050565b6000600560008473ffffffffffffffffffffffffffffffffffffffff1673ffffffffffffffffffffffffffffffffffffffff16815260200190815260200160002060008373ffffffffffffffffffffffffffffffffffffffff1673ffffffffffffffffffffffffffffffffffffffff16815260200190815260200160002060009054906101000a900460ff16905092915050565b6000806001600084815260200190815260200160002060009054906101000a900473ffffffffffffffffffffffffffffffffffffffff169050600073ffffffffffffffffffffffffffffffffffffffff168173ffffffffffffffffffffffffffffffffffffffff161415915050919050565b600080610c15836108cb565b90508073ffffffffffffffffffffffffffffffffffffffff168473ffffffffffffffffffffffffffffffffffffffff161480610c8457508373ffffffffffffffffffffffffffffffffffffffff16610c6c84610352565b73ffffffffffffffffffffffffffffffffffffffff16145b80610c955750610c948185610b03565b5b91505092915050565b8273ffffffffffffffffffffffffffffffffffffffff16610cbe826108cb565b73ffffffffffffffffffffffffffffffffffffffff16141515610ce057600080fd5b600073ffffffffffffffffffffffffffffffffffffffff168273ffffffffffffffffffffffffffffffffffffffff1614151515610d1c57600080fd5b610d258161110e565b610d6c600360008573ffffffffffffffffffffffffffffffffffffffff1673ffffffffffffffffffffffffffffffffffffffff1681526020019081526020016000206111ce565b610db3600360008473ffffffffffffffffffffffffffffffffffffffff1673ffffffffffffffffffffffffffffffffffffffff1681526020019081526020016000206111f1565b816001600083815260200190815260200160002060006101000a81548173ffffffffffffffffffffffffffffffffffffffff021916908373ffffffffffffffffffffffffffffffffffffffff160217905550808273ffffffffffffffffffffffffffffffffffffffff168473ffffffffffffffffffffffffffffffffffffffff167fddf252ad1be2c89b69c2b068fc378daa952ba7f163c4a11628f55a4df523b3ef60405160405180910390a4505050565b600073ffffffffffffffffffffffffffffffffffffffff168273ffffffffffffffffffffffffffffffffffffffff1614151515610ea157600080fd5b610eaa81610b97565b151515610eb657600080fd5b816001600083815260200190815260200160002060006101000a81548173ffffffffffffffffffffffffffffffffffffffff021916908373ffffffffffffffffffffffffffffffffffffffff160217905550610f4f600360008473ffffffffffffffffffffffffffffffffffffffff1673ffffffffffffffffffffffffffffffffffffffff1681526020019081526020016000206111f1565b808273ffffffffffffffffffffffffffffffffffffffff16600073ffffffffffffffffffffffffffffffffffffffff167fddf252ad1be2c89b69c2b068fc378daa952ba7f163c4a11628f55a4df523b3ef60405160405180910390a45050565b600081600001549050919050565b6000610fde8473ffffffffffffffffffffffffffffffffffffffff16611207565b1515610fed5760019050611106565b60008473ffffffffffffffffffffffffffffffffffffffff1663150b7a02338887876040518563ffffffff167c010000000000000000000000000000000000000000000000000000000002815260040161104a9493929190611748565b602060405180830381600087803b15801561106457600080fd5b505af1158015611078573d6000803e3d6000fd5b505050506040513d601f19601f8201168201806040525061109c9190810190611551565b905063150b7a027c0100000000000000000000000000000000000000000000000000000000027bffffffffffffffffffffffffffffffffffffffffffffffffffffffff1916817bffffffffffffffffffffffffffffffffffffffffffffffffffffffff1916149150505b949350505050565b600073ffffffffffffffffffffffffffffffffffffffff166002600083815260200190815260200160002060009054906101000a900473ffffffffffffffffffffffffffffffffffffffff1673ffffffffffffffffffffffffffffffffffffffff161415156111cb5760006002600083815260200190815260200160002060006101000a81548173ffffffffffffffffffffffffffffffffffffffff021916908373ffffffffffffffffffffffffffffffffffffffff1602179055505b50565b6111e66001826000015461121a90919063ffffffff16565b816000018190555050565b6001816000016000828254019250508190555050565b600080823b905060008111915050919050565b600082821115151561122b57600080fd5b600082840390508091505092915050565b6060604051908101604052806000815260200160008019168152602001600073ffffffffffffffffffffffffffffffffffffffff1681525090565b600061128382356118fd565b905092915050565b6000611297823561190f565b905092915050565b60006112ab823561191b565b905092915050565b60006112bf8235611925565b905092915050565b60006112d38251611925565b905092915050565b600082601f83011215156112ee57600080fd5b81356113016112fc82611852565b611825565b9150808252602083016020830185838301111561131d57600080fd5b6113288382846119b1565b50505092915050565b600061133d8235611971565b905092915050565b60006020828403121561135757600080fd5b600061136584828501611277565b91505092915050565b6000806040838503121561138157600080fd5b600061138f85828601611277565b92505060206113a085828601611277565b9150509250929050565b6000806000606084860312156113bf57600080fd5b60006113cd86828701611277565b93505060206113de86828701611277565b92505060406113ef86828701611331565b9150509250925092565b6000806000806080858703121561140f57600080fd5b600061141d87828801611277565b945050602061142e87828801611277565b935050604061143f87828801611331565b925050606085013567ffffffffffffffff81111561145c57600080fd5b611468878288016112db565b91505092959194509250565b6000806040838503121561148757600080fd5b600061149585828601611277565b92505060206114a68582860161128b565b9150509250929050565b600080604083850312156114c357600080fd5b60006114d185828601611277565b92505060206114e28582860161129f565b9150509250929050565b600080604083850312156114ff57600080fd5b600061150d85828601611277565b925050602061151e85828601611331565b9150509250929050565b60006020828403121561153a57600080fd5b6000611548848285016112b3565b91505092915050565b60006020828403121561156357600080fd5b6000611571848285016112c7565b91505092915050565b60006020828403121561158c57600080fd5b600061159a84828501611331565b91505092915050565b6115ac8161197b565b82525050565b6115bb816118ab565b82525050565b6115ca816118ab565b82525050565b6115d9816118bd565b82525050565b6115e8816118c9565b82525050565b60006115f98261187e565b6116038185611889565b93506116138185602086016119c0565b61161c816119f3565b840191505092915050565b6000611634602f8361189a565b91507f4e656564206f70657261746f7220617070726f76616c20666f7220337264207060008301527f61727479207472616e73666572732e00000000000000000000000000000000006020830152604082019050919050565b600061169a60158361189a565b91507f5f746f206d757374206265206e6f6e2d7a65726f2e00000000000000000000006000830152602082019050919050565b6060820160008201516116e3600085018261170f565b5060208201516116f660208501826115df565b50604082015161170960408501826115b2565b50505050565b611718816118f3565b82525050565b611727816118f3565b82525050565b600060208201905061174260008301846115c1565b92915050565b600060808201905061175d60008301876115a3565b61176a60208301866115c1565b611777604083018561171e565b818103606083015261178981846115ee565b905095945050505050565b60006020820190506117a960008301846115d0565b92915050565b600060208201905081810360008301526117c881611627565b9050919050565b600060208201905081810360008301526117e88161168d565b9050919050565b600060608201905061180460008301846116cd565b92915050565b600060208201905061181f600083018461171e565b92915050565b6000604051905081810181811067ffffffffffffffff8211171561184857600080fd5b8060405250919050565b600067ffffffffffffffff82111561186957600080fd5b601f19601f8301169050602081019050919050565b600081519050919050565b600082825260208201905092915050565b600082825260208201905092915050565b60006118b6826118d3565b9050919050565b60008115159050919050565b6000819050919050565b600073ffffffffffffffffffffffffffffffffffffffff82169050919050565b6000819050919050565b600061190882611951565b9050919050565b60008115159050919050565b6000819050919050565b60007fffffffff0000000000000000000000000000000000000000000000000000000082169050919050565b600073ffffffffffffffffffffffffffffffffffffffff82169050919050565b6000819050919050565b60006119868261198d565b9050919050565b60006119988261199f565b9050919050565b60006119aa826118d3565b9050919050565b82818337600083830152505050565b60005b838110156119de5780820151818401526020810190506119c3565b838111156119ed576000848401525b50505050565b6000601f19601f830116905091905056fea265627a7a72305820a8c10cae2f750108c3f730ce7d8ebd80d1a90b06b753ea99b56dca4f6111dd956c6578706572696d656e74616cf50037",
  "source": "pragma solidity ^0.5.4;\r\npragma experimental ABIEncoderV2;\r\n\r\nimport \"openzeppelin-solidity/contracts/math/SafeMath.sol\";\r\nimport \"openzeppelin-solidity/contracts/utils/Address.sol\";\r\nimport \"openzeppelin-solidity/contracts/introspection/IERC165.sol\";\r\nimport \"openzeppelin-solidity/contracts/token/ERC721/ERC721.sol\";\r\n\r\n// A sample implementation of core ERC1155 function.\r\ncontract ERC721Dudes is ERC721\r\n{\r\n    struct ItemStruct {\r\n        uint256 tokenId;\r\n        bytes32 digest;\r\n        address owner;\r\n    }\r\n\r\n    using SafeMath for uint256;\r\n    using Address for address;\r\n\r\n    // owner => (operator => approved)\r\n    mapping (address => mapping(address => bool)) internal operatorApproval;\r\n    //mapping(address => UserStruct) ownedItems;\r\n    mapping(uint256 => uint) itemIndexes;\r\n\r\n    ItemStruct[] allItems;\r\n    uint allItemsLength;\r\n    uint256 nonse;\r\n\r\n    function safeTransferFrom(address _from, address _to, uint256 _id) public {\r\n\r\n        require(_to != address(0x0), \"_to must be non-zero.\");\r\n        require(_from == msg.sender || operatorApproval[_from][msg.sender] == true, \"Need operator approval for 3rd party transfers.\");\r\n\r\n        \r\n        uint index = itemIndexes[_id];\r\n\r\n        allItems[index].owner = _to;\r\n    }\r\n\r\n    function getItem(uint index) public view returns (ItemStruct memory) {\r\n        return allItems[index];\r\n    }\r\n\r\n    function getAllItemsLength() public view returns (uint) {\r\n        return allItemsLength;\r\n    }\r\n\r\n    /**\r\n        @notice Enable or disable approval for a third party (\"operator\") to manage all of the caller's tokens.\r\n        @dev MUST emit the ApprovalForAll event on success.\r\n        @param _operator  Address to add to the set of authorized operators\r\n        @param _approved  True if the operator is approved, false to revoke approval\r\n    */\r\n    function setApprovalForAll(address _operator, bool _approved) public {\r\n        operatorApproval[msg.sender][_operator] = _approved;\r\n        emit ApprovalForAll(msg.sender, _operator, _approved);\r\n    }\r\n\r\n    /**\r\n        @notice Queries the approval status of an operator for a given owner.\r\n        @param _owner     The owner of the Tokens\r\n        @param _operator  Address of authorized operator\r\n        @return           True if the operator is approved, false if not\r\n    */\r\n    function isApprovedForAll(address _owner, address _operator) public view returns (bool) {\r\n        return operatorApproval[_owner][_operator];\r\n    }\r\n\r\n    function mintWithTokenHash(address to, bytes32 value) public returns (bool) {\r\n\r\n        nonse++;\r\n\r\n        uint256 tokenId = nonse;\r\n        \r\n        _mint(to, tokenId);\r\n\r\n        ItemStruct memory item = ItemStruct(tokenId, value, to);\r\n\r\n        allItems.push(item);\r\n        itemIndexes[tokenId] = allItemsLength;\r\n        allItemsLength++;\r\n\r\n        return true;\r\n    }\r\n\r\n    // function deleteUserAsset(address user, uint256 tokenId) private {\r\n    //     UserStruct storage u = ownedItems[user];\r\n    //     uint rowToDelete = u.assetPointers[tokenId];\r\n    //     u.assets[rowToDelete] = u.assets[u.assets.length-1];\r\n    //     u.hashes[rowToDelete] = u.hashes[u.hashes.length-1];\r\n    //     u.assets.length--;\r\n    //     u.hashes.length--;\r\n    // }\r\n\r\n    // function addUserAsset(address user, uint256 tokenId, bytes32 value) private {\r\n    //     ownedItems[user].assets.push(tokenId);\r\n    //     ownedItems[user].hashes.push(value);\r\n    //     ownedItems[user].assetPointers[tokenId] = ownedItems[user].assets.length - 1;\r\n    // }\r\n}",
  "sourcePath": "C:/Projects/Finturi/BlockDudes/Eth/contracts/ERC721/ERC721Dudes.sol",
  "compiler": {
    "name": "solc",
    "version": "0.5.4+commit.9549d8ff.Emscripten.clang"
  },
  "schemaVersion": "3.0.6",
  "updatedAt": "2019-04-13T12:02:48.848Z",
  "devdoc": {
    "methods": {
      "approve(address,uint256)": {
        "details": "Approves another address to transfer the given token ID The zero address indicates there is no approved address. There can only be one approved address per token at a given time. Can only be called by the token owner or an approved operator.",
        "params": {
          "to": "address to be approved for the given token ID",
          "tokenId": "uint256 ID of the token to be approved"
        }
      },
      "balanceOf(address)": {
        "details": "Gets the balance of the specified address",
        "params": {
          "owner": "address to query the balance of"
        },
        "return": "uint256 representing the amount owned by the passed address"
      },
      "getApproved(uint256)": {
        "details": "Gets the approved address for a token ID, or zero if no address set Reverts if the token ID does not exist.",
        "params": {
          "tokenId": "uint256 ID of the token to query the approval of"
        },
        "return": "address currently approved for the given token ID"
      },
      "isApprovedForAll(address,address)": {
        "params": {
          "_operator": "Address of authorized operator\r",
          "_owner": "The owner of the Tokens\r"
        },
        "return": "True if the operator is approved, false if not\r"
      },
      "ownerOf(uint256)": {
        "details": "Gets the owner of the specified token ID",
        "params": {
          "tokenId": "uint256 ID of the token to query the owner of"
        },
        "return": "address currently marked as the owner of the given token ID"
      },
      "safeTransferFrom(address,address,uint256,bytes)": {
        "details": "Safely transfers the ownership of a given token ID to another address If the target address is a contract, it must implement `onERC721Received`, which is called upon a safe transfer, and return the magic value `bytes4(keccak256(\"onERC721Received(address,address,uint256,bytes)\"))`; otherwise, the transfer is reverted. Requires the msg.sender to be the owner, approved, or operator",
        "params": {
          "_data": "bytes data to send along with a safe transfer check",
          "from": "current owner of the token",
          "to": "address to receive the ownership of the given token ID",
          "tokenId": "uint256 ID of the token to be transferred"
        }
      },
      "setApprovalForAll(address,bool)": {
        "details": "MUST emit the ApprovalForAll event on success.\r",
        "params": {
          "_approved": "True if the operator is approved, false to revoke approval\r",
          "_operator": "Address to add to the set of authorized operators\r"
        }
      },
      "supportsInterface(bytes4)": {
        "details": "implement supportsInterface(bytes4) using a lookup table"
      },
      "transferFrom(address,address,uint256)": {
        "details": "Transfers the ownership of a given token ID to another address Usage of this method is discouraged, use `safeTransferFrom` whenever possible Requires the msg.sender to be the owner, approved, or operator",
        "params": {
          "from": "current owner of the token",
          "to": "address to receive the ownership of the given token ID",
          "tokenId": "uint256 ID of the token to be transferred"
        }
      }
    }
  },
  "userdoc": {
    "methods": {
      "isApprovedForAll(address,address)": {
        "notice": "Queries the approval status of an operator for a given owner.\r"
      },
      "setApprovalForAll(address,bool)": {
        "notice": "Enable or disable approval for a third party (\"operator\") to manage all of the caller's tokens.\r"
      }
    }
  }
}