{
  "contractName": "ERC721Dudes",
  "abi": [
    {
      "constant": true,
      "inputs": [
        {
          "name": "interfaceId",
          "type": "bytes4"
        }
      ],
      "name": "supportsInterface",
      "outputs": [
        {
          "name": "",
          "type": "bool"
        }
      ],
      "payable": false,
      "stateMutability": "view",
      "type": "function"
    },
    {
      "constant": true,
      "inputs": [
        {
          "name": "tokenId",
          "type": "uint256"
        }
      ],
      "name": "getApproved",
      "outputs": [
        {
          "name": "",
          "type": "address"
        }
      ],
      "payable": false,
      "stateMutability": "view",
      "type": "function"
    },
    {
      "constant": false,
      "inputs": [
        {
          "name": "to",
          "type": "address"
        },
        {
          "name": "tokenId",
          "type": "uint256"
        }
      ],
      "name": "approve",
      "outputs": [],
      "payable": false,
      "stateMutability": "nonpayable",
      "type": "function"
    },
    {
      "constant": false,
      "inputs": [
        {
          "name": "from",
          "type": "address"
        },
        {
          "name": "to",
          "type": "address"
        },
        {
          "name": "tokenId",
          "type": "uint256"
        }
      ],
      "name": "transferFrom",
      "outputs": [],
      "payable": false,
      "stateMutability": "nonpayable",
      "type": "function"
    },
    {
      "constant": true,
      "inputs": [
        {
          "name": "tokenId",
          "type": "uint256"
        }
      ],
      "name": "ownerOf",
      "outputs": [
        {
          "name": "",
          "type": "address"
        }
      ],
      "payable": false,
      "stateMutability": "view",
      "type": "function"
    },
    {
      "constant": true,
      "inputs": [
        {
          "name": "owner",
          "type": "address"
        }
      ],
      "name": "balanceOf",
      "outputs": [
        {
          "name": "",
          "type": "uint256"
        }
      ],
      "payable": false,
      "stateMutability": "view",
      "type": "function"
    },
    {
      "anonymous": false,
      "inputs": [
        {
          "indexed": true,
          "name": "from",
          "type": "address"
        },
        {
          "indexed": true,
          "name": "to",
          "type": "address"
        },
        {
          "indexed": true,
          "name": "tokenId",
          "type": "uint256"
        }
      ],
      "name": "Transfer",
      "type": "event"
    },
    {
      "anonymous": false,
      "inputs": [
        {
          "indexed": true,
          "name": "owner",
          "type": "address"
        },
        {
          "indexed": true,
          "name": "approved",
          "type": "address"
        },
        {
          "indexed": true,
          "name": "tokenId",
          "type": "uint256"
        }
      ],
      "name": "Approval",
      "type": "event"
    },
    {
      "anonymous": false,
      "inputs": [
        {
          "indexed": true,
          "name": "owner",
          "type": "address"
        },
        {
          "indexed": true,
          "name": "operator",
          "type": "address"
        },
        {
          "indexed": false,
          "name": "approved",
          "type": "bool"
        }
      ],
      "name": "ApprovalForAll",
      "type": "event"
    },
    {
      "constant": false,
      "inputs": [
        {
          "name": "_from",
          "type": "address"
        },
        {
          "name": "_to",
          "type": "address"
        },
        {
          "name": "_id",
          "type": "uint256"
        }
      ],
      "name": "safeTransferFrom",
      "outputs": [],
      "payable": false,
      "stateMutability": "nonpayable",
      "type": "function"
    },
    {
      "constant": false,
      "inputs": [
        {
          "name": "from",
          "type": "address"
        },
        {
          "name": "to",
          "type": "address"
        },
        {
          "name": "tokenId",
          "type": "uint256"
        },
        {
          "name": "_data",
          "type": "bytes"
        }
      ],
      "name": "safeTransferFrom",
      "outputs": [],
      "payable": false,
      "stateMutability": "nonpayable",
      "type": "function"
    },
    {
      "constant": false,
      "inputs": [
        {
          "name": "_user1",
          "type": "address"
        },
        {
          "name": "_user2",
          "type": "address"
        },
        {
          "name": "_id1",
          "type": "uint256"
        },
        {
          "name": "_id2",
          "type": "uint256"
        }
      ],
      "name": "exchangeTokens",
      "outputs": [],
      "payable": false,
      "stateMutability": "nonpayable",
      "type": "function"
    },
    {
      "constant": true,
      "inputs": [
        {
          "name": "index",
          "type": "uint256"
        }
      ],
      "name": "getItem",
      "outputs": [
        {
          "name": "",
          "type": "uint256"
        },
        {
          "name": "",
          "type": "string"
        },
        {
          "name": "",
          "type": "string"
        },
        {
          "name": "",
          "type": "address"
        }
      ],
      "payable": false,
      "stateMutability": "view",
      "type": "function"
    },
    {
      "constant": true,
      "inputs": [],
      "name": "getAllItemsLength",
      "outputs": [
        {
          "name": "",
          "type": "uint256"
        }
      ],
      "payable": false,
      "stateMutability": "view",
      "type": "function"
    },
    {
      "constant": false,
      "inputs": [
        {
          "name": "_operator",
          "type": "address"
        },
        {
          "name": "_approved",
          "type": "bool"
        }
      ],
      "name": "setApprovalForAll",
      "outputs": [],
      "payable": false,
      "stateMutability": "nonpayable",
      "type": "function"
    },
    {
      "constant": true,
      "inputs": [
        {
          "name": "_owner",
          "type": "address"
        },
        {
          "name": "_operator",
          "type": "address"
        }
      ],
      "name": "isApprovedForAll",
      "outputs": [
        {
          "name": "",
          "type": "bool"
        }
      ],
      "payable": false,
      "stateMutability": "view",
      "type": "function"
    },
    {
      "constant": false,
      "inputs": [
        {
          "name": "to",
          "type": "address"
        },
        {
          "name": "fileHash",
          "type": "string"
        },
        {
          "name": "descriptionHash",
          "type": "string"
        }
      ],
      "name": "mintWithTokenHash",
      "outputs": [
        {
          "name": "",
          "type": "bool"
        }
      ],
      "payable": false,
      "stateMutability": "nonpayable",
      "type": "function"
    }
  ],
  "bytecode": "0x608060405261003f6301ffc9a77c01000000000000000000000000000000000000000000000000000000000261007f640100000000026401000000009004565b61007a6380ac58cd7c01000000000000000000000000000000000000000000000000000000000261007f640100000000026401000000009004565b61013c565b63ffffffff7c010000000000000000000000000000000000000000000000000000000002817bffffffffffffffffffffffffffffffffffffffffffffffffffffffff1916141515156100d057600080fd5b6001600080837bffffffffffffffffffffffffffffffffffffffffffffffffffffffff19167bffffffffffffffffffffffffffffffffffffffffffffffffffffffff1916815260200190815260200160002060006101000a81548160ff02191690831515021790555050565b611c418061014b6000396000f3fe608060405234801561001057600080fd5b5060043610610107576000357c0100000000000000000000000000000000000000000000000000000000900480636352211e116100a9578063b611272611610083578063b61127261461028b578063b88d4fde146102a9578063bdd795a9146102c5578063e985e9c5146102f557610107565b80636352211e1461020f57806370a082311461023f578063a22cb4651461026f57610107565b806323b872dd116100e557806323b872dd146101885780633129e773146101a457806340b4ad44146101d757806342842e0e146101f357610107565b806301ffc9a71461010c578063081812fc1461013c578063095ea7b31461016c575b600080fd5b6101266004803603610121919081019061178c565b610325565b604051610133919061195c565b60405180910390f35b610156600480360361015191908101906117de565b61038c565b60405161016391906118f5565b60405180910390f35b61018660048036036101819190810190611750565b6103dd565b005b6101a2600480360361019d9190810190611568565b610522565b005b6101be60048036036101b991908101906117de565b610547565b6040516101ce94939291906119b2565b60405180910390f35b6101f160048036036101ec9190810190611632565b610737565b005b61020d60048036036102089190810190611568565b610753565b005b610229600480360361022491908101906117de565b610842565b60405161023691906118f5565b60405180910390f35b61025960048036036102549190810190611503565b6108c0565b6040516102669190611997565b60405180910390f35b61028960048036036102849190810190611695565b61094b565b005b610293610a48565b6040516102a09190611997565b60405180910390f35b6102c360048036036102be91908101906115b7565b610a52565b005b6102df60048036036102da91908101906116d1565b610a7a565b6040516102ec919061195c565b60405180910390f35b61030f600480360361030a919081019061152c565b610bd6565b60405161031c919061195c565b60405180910390f35b6000806000837bffffffffffffffffffffffffffffffffffffffffffffffffffffffff19167bffffffffffffffffffffffffffffffffffffffffffffffffffffffff1916815260200190815260200160002060009054906101000a900460ff169050919050565b600061039782610c6a565b15156103a257600080fd5b6002600083815260200190815260200160002060009054906101000a900473ffffffffffffffffffffffffffffffffffffffff169050919050565b60006103e882610842565b90508073ffffffffffffffffffffffffffffffffffffffff168373ffffffffffffffffffffffffffffffffffffffff161415151561042557600080fd5b8073ffffffffffffffffffffffffffffffffffffffff163373ffffffffffffffffffffffffffffffffffffffff16148061046557506104648133610bd6565b5b151561047057600080fd5b826002600084815260200190815260200160002060006101000a81548173ffffffffffffffffffffffffffffffffffffffff021916908373ffffffffffffffffffffffffffffffffffffffff160217905550818373ffffffffffffffffffffffffffffffffffffffff168273ffffffffffffffffffffffffffffffffffffffff167f8c5be1e5ebec7d5bd14f71427d1e84f3dd0314c0f7b2291e5b200ac8c7c3b92560405160405180910390a4505050565b61052c3382610cdc565b151561053757600080fd5b610542838383610d71565b505050565b6000606080600060078581548110151561055d57fe5b90600052602060002090600402016000015460078681548110151561057e57fe5b906000526020600020906004020160010160078781548110151561059e57fe5b90600052602060002090600402016002016007888154811015156105be57fe5b906000526020600020906004020160030160009054906101000a900473ffffffffffffffffffffffffffffffffffffffff16828054600181600116156101000203166002900480601f0160208091040260200160405190810160405280929190818152602001828054600181600116156101000203166002900480156106855780601f1061065a57610100808354040283529160200191610685565b820191906000526020600020905b81548152906001019060200180831161066857829003601f168201915b50505050509250818054600181600116156101000203166002900480601f0160208091040260200160405190810160405280929190818152602001828054600181600116156101000203166002900480156107215780601f106106f657610100808354040283529160200191610721565b820191906000526020600020905b81548152906001019060200180831161070457829003601f168201915b5050505050915093509350935093509193509193565b610742848484610753565b61074d838583610753565b50505050565b600073ffffffffffffffffffffffffffffffffffffffff168273ffffffffffffffffffffffffffffffffffffffff16141515156107c5576040517f08c379a00000000000000000000000000000000000000000000000000000000081526004016107bc90611977565b60405180910390fd5b600060066000838152602001908152602001600020549050826007828154811015156107ed57fe5b906000526020600020906004020160030160006101000a81548173ffffffffffffffffffffffffffffffffffffffff021916908373ffffffffffffffffffffffffffffffffffffffff16021790555050505050565b6000806001600084815260200190815260200160002060009054906101000a900473ffffffffffffffffffffffffffffffffffffffff169050600073ffffffffffffffffffffffffffffffffffffffff168173ffffffffffffffffffffffffffffffffffffffff16141515156108b757600080fd5b80915050919050565b60008073ffffffffffffffffffffffffffffffffffffffff168273ffffffffffffffffffffffffffffffffffffffff16141515156108fd57600080fd5b610944600360008473ffffffffffffffffffffffffffffffffffffffff1673ffffffffffffffffffffffffffffffffffffffff168152602001908152602001600020610f38565b9050919050565b80600560003373ffffffffffffffffffffffffffffffffffffffff1673ffffffffffffffffffffffffffffffffffffffff16815260200190815260200160002060008473ffffffffffffffffffffffffffffffffffffffff1673ffffffffffffffffffffffffffffffffffffffff16815260200190815260200160002060006101000a81548160ff0219169083151502179055508173ffffffffffffffffffffffffffffffffffffffff163373ffffffffffffffffffffffffffffffffffffffff167f17307eab39ab6107e8899845ad3d59bd9653f200f220920489ca2b5937696c3183604051610a3c919061195c565b60405180910390a35050565b6000600854905090565b610a5d848484610522565b610a6984848484610f46565b1515610a7457600080fd5b50505050565b600060096000815480929190600101919050555060006009549050610a9f8582611097565b610aa761130f565b6080604051908101604052808381526020018681526020018581526020018773ffffffffffffffffffffffffffffffffffffffff16815250905060078190806001815401808255809150509060018203906000526020600020906004020160009091929091909150600082015181600001556020820151816001019080519060200190610b3592919061134e565b506040820151816002019080519060200190610b5292919061134e565b5060608201518160030160006101000a81548173ffffffffffffffffffffffffffffffffffffffff021916908373ffffffffffffffffffffffffffffffffffffffff16021790555050505060085460066000848152602001908152602001600020819055506008600081548092919060010191905055506001925050509392505050565b6000600560008473ffffffffffffffffffffffffffffffffffffffff1673ffffffffffffffffffffffffffffffffffffffff16815260200190815260200160002060008373ffffffffffffffffffffffffffffffffffffffff1673ffffffffffffffffffffffffffffffffffffffff16815260200190815260200160002060009054906101000a900460ff16905092915050565b6000806001600084815260200190815260200160002060009054906101000a900473ffffffffffffffffffffffffffffffffffffffff169050600073ffffffffffffffffffffffffffffffffffffffff168173ffffffffffffffffffffffffffffffffffffffff161415915050919050565b600080610ce883610842565b90508073ffffffffffffffffffffffffffffffffffffffff168473ffffffffffffffffffffffffffffffffffffffff161480610d5757508373ffffffffffffffffffffffffffffffffffffffff16610d3f8461038c565b73ffffffffffffffffffffffffffffffffffffffff16145b80610d685750610d678185610bd6565b5b91505092915050565b8273ffffffffffffffffffffffffffffffffffffffff16610d9182610842565b73ffffffffffffffffffffffffffffffffffffffff16141515610db357600080fd5b600073ffffffffffffffffffffffffffffffffffffffff168273ffffffffffffffffffffffffffffffffffffffff1614151515610def57600080fd5b610df8816111e1565b610e3f600360008573ffffffffffffffffffffffffffffffffffffffff1673ffffffffffffffffffffffffffffffffffffffff1681526020019081526020016000206112a1565b610e86600360008473ffffffffffffffffffffffffffffffffffffffff1673ffffffffffffffffffffffffffffffffffffffff1681526020019081526020016000206112c4565b816001600083815260200190815260200160002060006101000a81548173ffffffffffffffffffffffffffffffffffffffff021916908373ffffffffffffffffffffffffffffffffffffffff160217905550808273ffffffffffffffffffffffffffffffffffffffff168473ffffffffffffffffffffffffffffffffffffffff167fddf252ad1be2c89b69c2b068fc378daa952ba7f163c4a11628f55a4df523b3ef60405160405180910390a4505050565b600081600001549050919050565b6000610f678473ffffffffffffffffffffffffffffffffffffffff166112da565b1515610f76576001905061108f565b60008473ffffffffffffffffffffffffffffffffffffffff1663150b7a02338887876040518563ffffffff167c0100000000000000000000000000000000000000000000000000000000028152600401610fd39493929190611910565b602060405180830381600087803b158015610fed57600080fd5b505af1158015611001573d6000803e3d6000fd5b505050506040513d601f19601f8201168201806040525061102591908101906117b5565b905063150b7a027c0100000000000000000000000000000000000000000000000000000000027bffffffffffffffffffffffffffffffffffffffffffffffffffffffff1916817bffffffffffffffffffffffffffffffffffffffffffffffffffffffff1916149150505b949350505050565b600073ffffffffffffffffffffffffffffffffffffffff168273ffffffffffffffffffffffffffffffffffffffff16141515156110d357600080fd5b6110dc81610c6a565b1515156110e857600080fd5b816001600083815260200190815260200160002060006101000a81548173ffffffffffffffffffffffffffffffffffffffff021916908373ffffffffffffffffffffffffffffffffffffffff160217905550611181600360008473ffffffffffffffffffffffffffffffffffffffff1673ffffffffffffffffffffffffffffffffffffffff1681526020019081526020016000206112c4565b808273ffffffffffffffffffffffffffffffffffffffff16600073ffffffffffffffffffffffffffffffffffffffff167fddf252ad1be2c89b69c2b068fc378daa952ba7f163c4a11628f55a4df523b3ef60405160405180910390a45050565b600073ffffffffffffffffffffffffffffffffffffffff166002600083815260200190815260200160002060009054906101000a900473ffffffffffffffffffffffffffffffffffffffff1673ffffffffffffffffffffffffffffffffffffffff1614151561129e5760006002600083815260200190815260200160002060006101000a81548173ffffffffffffffffffffffffffffffffffffffff021916908373ffffffffffffffffffffffffffffffffffffffff1602179055505b50565b6112b9600182600001546112ed90919063ffffffff16565b816000018190555050565b6001816000016000828254019250508190555050565b600080823b905060008111915050919050565b60008282111515156112fe57600080fd5b600082840390508091505092915050565b608060405190810160405280600081526020016060815260200160608152602001600073ffffffffffffffffffffffffffffffffffffffff1681525090565b828054600181600116156101000203166002900490600052602060002090601f016020900481019282601f1061138f57805160ff19168380011785556113bd565b828001600101855582156113bd579182015b828111156113bc5782518255916020019190600101906113a1565b5b5090506113ca91906113ce565b5090565b6113f091905b808211156113ec5760008160009055506001016113d4565b5090565b90565b60006113ff8235611b0a565b905092915050565b60006114138235611b1c565b905092915050565b60006114278235611b28565b905092915050565b600061143b8251611b28565b905092915050565b600082601f830112151561145657600080fd5b813561146961146482611a32565b611a05565b9150808252602083016020830185838301111561148557600080fd5b611490838284611bb4565b50505092915050565b600082601f83011215156114ac57600080fd5b81356114bf6114ba82611a5e565b611a05565b915080825260208301602083018583830111156114db57600080fd5b6114e6838284611bb4565b50505092915050565b60006114fb8235611b74565b905092915050565b60006020828403121561151557600080fd5b6000611523848285016113f3565b91505092915050565b6000806040838503121561153f57600080fd5b600061154d858286016113f3565b925050602061155e858286016113f3565b9150509250929050565b60008060006060848603121561157d57600080fd5b600061158b868287016113f3565b935050602061159c868287016113f3565b92505060406115ad868287016114ef565b9150509250925092565b600080600080608085870312156115cd57600080fd5b60006115db878288016113f3565b94505060206115ec878288016113f3565b93505060406115fd878288016114ef565b925050606085013567ffffffffffffffff81111561161a57600080fd5b61162687828801611443565b91505092959194509250565b6000806000806080858703121561164857600080fd5b6000611656878288016113f3565b9450506020611667878288016113f3565b9350506040611678878288016114ef565b9250506060611689878288016114ef565b91505092959194509250565b600080604083850312156116a857600080fd5b60006116b6858286016113f3565b92505060206116c785828601611407565b9150509250929050565b6000806000606084860312156116e657600080fd5b60006116f4868287016113f3565b935050602084013567ffffffffffffffff81111561171157600080fd5b61171d86828701611499565b925050604084013567ffffffffffffffff81111561173a57600080fd5b61174686828701611499565b9150509250925092565b6000806040838503121561176357600080fd5b6000611771858286016113f3565b9250506020611782858286016114ef565b9150509250929050565b60006020828403121561179e57600080fd5b60006117ac8482850161141b565b91505092915050565b6000602082840312156117c757600080fd5b60006117d58482850161142f565b91505092915050565b6000602082840312156117f057600080fd5b60006117fe848285016114ef565b91505092915050565b61181081611b7e565b82525050565b61181f81611ac2565b82525050565b61182e81611ad4565b82525050565b600061183f82611a8a565b6118498185611aa0565b9350611859818560208601611bc3565b61186281611bf6565b840191505092915050565b600061187882611a95565b6118828185611ab1565b9350611892818560208601611bc3565b61189b81611bf6565b840191505092915050565b60006118b3601583611ab1565b91507f5f746f206d757374206265206e6f6e2d7a65726f2e00000000000000000000006000830152602082019050919050565b6118ef81611b00565b82525050565b600060208201905061190a6000830184611816565b92915050565b60006080820190506119256000830187611807565b6119326020830186611816565b61193f60408301856118e6565b81810360608301526119518184611834565b905095945050505050565b60006020820190506119716000830184611825565b92915050565b60006020820190508181036000830152611990816118a6565b9050919050565b60006020820190506119ac60008301846118e6565b92915050565b60006080820190506119c760008301876118e6565b81810360208301526119d9818661186d565b905081810360408301526119ed818561186d565b90506119fc6060830184611816565b95945050505050565b6000604051905081810181811067ffffffffffffffff82111715611a2857600080fd5b8060405250919050565b600067ffffffffffffffff821115611a4957600080fd5b601f19601f8301169050602081019050919050565b600067ffffffffffffffff821115611a7557600080fd5b601f19601f8301169050602081019050919050565b600081519050919050565b600081519050919050565b600082825260208201905092915050565b600082825260208201905092915050565b6000611acd82611ae0565b9050919050565b60008115159050919050565b600073ffffffffffffffffffffffffffffffffffffffff82169050919050565b6000819050919050565b6000611b1582611b54565b9050919050565b60008115159050919050565b60007fffffffff0000000000000000000000000000000000000000000000000000000082169050919050565b600073ffffffffffffffffffffffffffffffffffffffff82169050919050565b6000819050919050565b6000611b8982611b90565b9050919050565b6000611b9b82611ba2565b9050919050565b6000611bad82611ae0565b9050919050565b82818337600083830152505050565b60005b83811015611be1578082015181840152602081019050611bc6565b83811115611bf0576000848401525b50505050565b6000601f19601f830116905091905056fea265627a7a723058209672f292eeaf532e4ac04da0d422329268fc2f4a0338b62f4c2888c3c69a0b6b6c6578706572696d656e74616cf50037",
  "source": "pragma solidity ^0.5.4;\r\npragma experimental ABIEncoderV2;\r\n\r\nimport \"openzeppelin-solidity/contracts/math/SafeMath.sol\";\r\nimport \"openzeppelin-solidity/contracts/utils/Address.sol\";\r\nimport \"openzeppelin-solidity/contracts/introspection/IERC165.sol\";\r\nimport \"openzeppelin-solidity/contracts/token/ERC721/ERC721.sol\";\r\n\r\n// A sample implementation of core ERC1155 function.\r\ncontract ERC721Dudes is ERC721\r\n{\r\n    struct ItemStruct {\r\n        uint256 tokenId;\r\n        string fileHash;\r\n        string descriptionHash;\r\n        address owner;\r\n    }\r\n\r\n    using SafeMath for uint256;\r\n    using Address for address;\r\n\r\n    // owner => (operator => approved)\r\n    mapping (address => mapping(address => bool)) internal operatorApproval;\r\n    //mapping(address => UserStruct) ownedItems;\r\n    mapping(uint256 => uint) itemIndexes;\r\n\r\n    ItemStruct[] allItems;\r\n    uint allItemsLength;\r\n    uint256 nonse;\r\n\r\n    function safeTransferFrom(address _from, address _to, uint256 _id) public {\r\n\r\n        require(_to != address(0x0), \"_to must be non-zero.\");\r\n        //require(_from == msg.sender || operatorApproval[_from][msg.sender] == true, \"Need operator approval for 3rd party transfers.\");\r\n\r\n        \r\n        uint index = itemIndexes[_id];\r\n\r\n        allItems[index].owner = _to;\r\n    }\r\n\r\n    function exchangeTokens(address _user1, address _user2, uint256 _id1, uint256 _id2) public {\r\n\r\n        safeTransferFrom(_user1, _user2, _id1);\r\n        safeTransferFrom(_user2, _user1, _id2);\r\n    }\r\n\r\n    function getItem(uint index) public view returns (uint256, string memory, string memory, address) {\r\n        return (allItems[index].tokenId, allItems[index].fileHash, allItems[index].descriptionHash, allItems[index].owner);\r\n    }\r\n\r\n    function getAllItemsLength() public view returns (uint) {\r\n        return allItemsLength;\r\n    }\r\n\r\n    /**\r\n        @notice Enable or disable approval for a third party (\"operator\") to manage all of the caller's tokens.\r\n        @dev MUST emit the ApprovalForAll event on success.\r\n        @param _operator  Address to add to the set of authorized operators\r\n        @param _approved  True if the operator is approved, false to revoke approval\r\n    */\r\n    function setApprovalForAll(address _operator, bool _approved) public {\r\n        operatorApproval[msg.sender][_operator] = _approved;\r\n        emit ApprovalForAll(msg.sender, _operator, _approved);\r\n    }\r\n\r\n    /**\r\n        @notice Queries the approval status of an operator for a given owner.\r\n        @param _owner     The owner of the Tokens\r\n        @param _operator  Address of authorized operator\r\n        @return           True if the operator is approved, false if not\r\n    */\r\n    function isApprovedForAll(address _owner, address _operator) public view returns (bool) {\r\n        return operatorApproval[_owner][_operator];\r\n    }\r\n\r\n    function mintWithTokenHash(address to, string memory fileHash, string memory descriptionHash) public returns (bool) {\r\n\r\n        nonse++;\r\n\r\n        uint256 tokenId = nonse;\r\n        \r\n        _mint(to, tokenId);\r\n\r\n        ItemStruct memory item = ItemStruct(tokenId, fileHash, descriptionHash, to);\r\n\r\n        allItems.push(item);\r\n        itemIndexes[tokenId] = allItemsLength;\r\n        allItemsLength++;\r\n\r\n        return true;\r\n    }\r\n\r\n    // function deleteUserAsset(address user, uint256 tokenId) private {\r\n    //     UserStruct storage u = ownedItems[user];\r\n    //     uint rowToDelete = u.assetPointers[tokenId];\r\n    //     u.assets[rowToDelete] = u.assets[u.assets.length-1];\r\n    //     u.hashes[rowToDelete] = u.hashes[u.hashes.length-1];\r\n    //     u.assets.length--;\r\n    //     u.hashes.length--;\r\n    // }\r\n\r\n    // function addUserAsset(address user, uint256 tokenId, bytes32 value) private {\r\n    //     ownedItems[user].assets.push(tokenId);\r\n    //     ownedItems[user].hashes.push(value);\r\n    //     ownedItems[user].assetPointers[tokenId] = ownedItems[user].assets.length - 1;\r\n    // }\r\n}",
  "sourcePath": "C:/Projects/Finturi/BlockDudes/Eth/contracts/ERC721/ERC721Dudes.sol",
  "compiler": {
    "name": "solc",
    "version": "0.5.4+commit.9549d8ff.Emscripten.clang"
  },
  "schemaVersion": "3.0.6",
  "updatedAt": "2019-04-13T17:15:50.208Z",
  "devdoc": {
    "methods": {
      "approve(address,uint256)": {
        "details": "Approves another address to transfer the given token ID The zero address indicates there is no approved address. There can only be one approved address per token at a given time. Can only be called by the token owner or an approved operator.",
        "params": {
          "to": "address to be approved for the given token ID",
          "tokenId": "uint256 ID of the token to be approved"
        }
      },
      "balanceOf(address)": {
        "details": "Gets the balance of the specified address",
        "params": {
          "owner": "address to query the balance of"
        },
        "return": "uint256 representing the amount owned by the passed address"
      },
      "getApproved(uint256)": {
        "details": "Gets the approved address for a token ID, or zero if no address set Reverts if the token ID does not exist.",
        "params": {
          "tokenId": "uint256 ID of the token to query the approval of"
        },
        "return": "address currently approved for the given token ID"
      },
      "isApprovedForAll(address,address)": {
        "params": {
          "_operator": "Address of authorized operator\r",
          "_owner": "The owner of the Tokens\r"
        },
        "return": "True if the operator is approved, false if not\r"
      },
      "ownerOf(uint256)": {
        "details": "Gets the owner of the specified token ID",
        "params": {
          "tokenId": "uint256 ID of the token to query the owner of"
        },
        "return": "address currently marked as the owner of the given token ID"
      },
      "safeTransferFrom(address,address,uint256,bytes)": {
        "details": "Safely transfers the ownership of a given token ID to another address If the target address is a contract, it must implement `onERC721Received`, which is called upon a safe transfer, and return the magic value `bytes4(keccak256(\"onERC721Received(address,address,uint256,bytes)\"))`; otherwise, the transfer is reverted. Requires the msg.sender to be the owner, approved, or operator",
        "params": {
          "_data": "bytes data to send along with a safe transfer check",
          "from": "current owner of the token",
          "to": "address to receive the ownership of the given token ID",
          "tokenId": "uint256 ID of the token to be transferred"
        }
      },
      "setApprovalForAll(address,bool)": {
        "details": "MUST emit the ApprovalForAll event on success.\r",
        "params": {
          "_approved": "True if the operator is approved, false to revoke approval\r",
          "_operator": "Address to add to the set of authorized operators\r"
        }
      },
      "supportsInterface(bytes4)": {
        "details": "implement supportsInterface(bytes4) using a lookup table"
      },
      "transferFrom(address,address,uint256)": {
        "details": "Transfers the ownership of a given token ID to another address Usage of this method is discouraged, use `safeTransferFrom` whenever possible Requires the msg.sender to be the owner, approved, or operator",
        "params": {
          "from": "current owner of the token",
          "to": "address to receive the ownership of the given token ID",
          "tokenId": "uint256 ID of the token to be transferred"
        }
      }
    }
  },
  "userdoc": {
    "methods": {
      "isApprovedForAll(address,address)": {
        "notice": "Queries the approval status of an operator for a given owner.\r"
      },
      "setApprovalForAll(address,bool)": {
        "notice": "Enable or disable approval for a third party (\"operator\") to manage all of the caller's tokens.\r"
      }
    }
  }
}