{
  "contractName": "ERC721Dudes",
  "abi": [
    {
      "constant": true,
      "inputs": [
        {
          "name": "interfaceId",
          "type": "bytes4"
        }
      ],
      "name": "supportsInterface",
      "outputs": [
        {
          "name": "",
          "type": "bool"
        }
      ],
      "payable": false,
      "stateMutability": "view",
      "type": "function"
    },
    {
      "constant": true,
      "inputs": [
        {
          "name": "tokenId",
          "type": "uint256"
        }
      ],
      "name": "getApproved",
      "outputs": [
        {
          "name": "",
          "type": "address"
        }
      ],
      "payable": false,
      "stateMutability": "view",
      "type": "function"
    },
    {
      "constant": false,
      "inputs": [
        {
          "name": "to",
          "type": "address"
        },
        {
          "name": "tokenId",
          "type": "uint256"
        }
      ],
      "name": "approve",
      "outputs": [],
      "payable": false,
      "stateMutability": "nonpayable",
      "type": "function"
    },
    {
      "constant": false,
      "inputs": [
        {
          "name": "from",
          "type": "address"
        },
        {
          "name": "to",
          "type": "address"
        },
        {
          "name": "tokenId",
          "type": "uint256"
        }
      ],
      "name": "transferFrom",
      "outputs": [],
      "payable": false,
      "stateMutability": "nonpayable",
      "type": "function"
    },
    {
      "constant": true,
      "inputs": [
        {
          "name": "tokenId",
          "type": "uint256"
        }
      ],
      "name": "ownerOf",
      "outputs": [
        {
          "name": "",
          "type": "address"
        }
      ],
      "payable": false,
      "stateMutability": "view",
      "type": "function"
    },
    {
      "constant": true,
      "inputs": [
        {
          "name": "owner",
          "type": "address"
        }
      ],
      "name": "balanceOf",
      "outputs": [
        {
          "name": "",
          "type": "uint256"
        }
      ],
      "payable": false,
      "stateMutability": "view",
      "type": "function"
    },
    {
      "anonymous": false,
      "inputs": [
        {
          "indexed": true,
          "name": "from",
          "type": "address"
        },
        {
          "indexed": true,
          "name": "to",
          "type": "address"
        },
        {
          "indexed": true,
          "name": "tokenId",
          "type": "uint256"
        }
      ],
      "name": "Transfer",
      "type": "event"
    },
    {
      "anonymous": false,
      "inputs": [
        {
          "indexed": true,
          "name": "owner",
          "type": "address"
        },
        {
          "indexed": true,
          "name": "approved",
          "type": "address"
        },
        {
          "indexed": true,
          "name": "tokenId",
          "type": "uint256"
        }
      ],
      "name": "Approval",
      "type": "event"
    },
    {
      "anonymous": false,
      "inputs": [
        {
          "indexed": true,
          "name": "owner",
          "type": "address"
        },
        {
          "indexed": true,
          "name": "operator",
          "type": "address"
        },
        {
          "indexed": false,
          "name": "approved",
          "type": "bool"
        }
      ],
      "name": "ApprovalForAll",
      "type": "event"
    },
    {
      "constant": false,
      "inputs": [
        {
          "name": "_from",
          "type": "address"
        },
        {
          "name": "_to",
          "type": "address"
        },
        {
          "name": "_id",
          "type": "uint256"
        }
      ],
      "name": "safeTransferFrom",
      "outputs": [],
      "payable": false,
      "stateMutability": "nonpayable",
      "type": "function"
    },
    {
      "constant": false,
      "inputs": [
        {
          "name": "from",
          "type": "address"
        },
        {
          "name": "to",
          "type": "address"
        },
        {
          "name": "tokenId",
          "type": "uint256"
        },
        {
          "name": "_data",
          "type": "bytes"
        }
      ],
      "name": "safeTransferFrom",
      "outputs": [],
      "payable": false,
      "stateMutability": "nonpayable",
      "type": "function"
    },
    {
      "constant": false,
      "inputs": [
        {
          "name": "_user1",
          "type": "address"
        },
        {
          "name": "_user2",
          "type": "address"
        },
        {
          "name": "_id1",
          "type": "uint256"
        },
        {
          "name": "_id2",
          "type": "uint256"
        }
      ],
      "name": "exchangeTokens",
      "outputs": [],
      "payable": false,
      "stateMutability": "nonpayable",
      "type": "function"
    },
    {
      "constant": true,
      "inputs": [
        {
          "name": "index",
          "type": "uint256"
        }
      ],
      "name": "getItem",
      "outputs": [
        {
          "components": [
            {
              "name": "tokenId",
              "type": "uint256"
            },
            {
              "name": "fileHash",
              "type": "bytes32"
            },
            {
              "name": "descriptionHash",
              "type": "bytes32"
            },
            {
              "name": "owner",
              "type": "address"
            }
          ],
          "name": "",
          "type": "tuple"
        }
      ],
      "payable": false,
      "stateMutability": "view",
      "type": "function"
    },
    {
      "constant": true,
      "inputs": [],
      "name": "getAllItemsLength",
      "outputs": [
        {
          "name": "",
          "type": "uint256"
        }
      ],
      "payable": false,
      "stateMutability": "view",
      "type": "function"
    },
    {
      "constant": false,
      "inputs": [
        {
          "name": "_operator",
          "type": "address"
        },
        {
          "name": "_approved",
          "type": "bool"
        }
      ],
      "name": "setApprovalForAll",
      "outputs": [],
      "payable": false,
      "stateMutability": "nonpayable",
      "type": "function"
    },
    {
      "constant": true,
      "inputs": [
        {
          "name": "_owner",
          "type": "address"
        },
        {
          "name": "_operator",
          "type": "address"
        }
      ],
      "name": "isApprovedForAll",
      "outputs": [
        {
          "name": "",
          "type": "bool"
        }
      ],
      "payable": false,
      "stateMutability": "view",
      "type": "function"
    },
    {
      "constant": false,
      "inputs": [
        {
          "name": "to",
          "type": "address"
        },
        {
          "name": "fileHash",
          "type": "bytes32"
        },
        {
          "name": "descriptionHash",
          "type": "bytes32"
        }
      ],
      "name": "mintWithTokenHash",
      "outputs": [
        {
          "name": "",
          "type": "bool"
        }
      ],
      "payable": false,
      "stateMutability": "nonpayable",
      "type": "function"
    }
  ],
  "bytecode": "0x608060405261003f6301ffc9a77c01000000000000000000000000000000000000000000000000000000000261007f640100000000026401000000009004565b61007a6380ac58cd7c01000000000000000000000000000000000000000000000000000000000261007f640100000000026401000000009004565b61013c565b63ffffffff7c010000000000000000000000000000000000000000000000000000000002817bffffffffffffffffffffffffffffffffffffffffffffffffffffffff1916141515156100d057600080fd5b6001600080837bffffffffffffffffffffffffffffffffffffffffffffffffffffffff19167bffffffffffffffffffffffffffffffffffffffffffffffffffffffff1916815260200190815260200160002060006101000a81548160ff02191690831515021790555050565b6119b18061014b6000396000f3fe608060405234801561001057600080fd5b5060043610610107576000357c01000000000000000000000000000000000000000000000000000000009004806342842e0e116100a9578063a22cb46511610083578063a22cb4651461029c578063b6112726146102b8578063b88d4fde146102d6578063e985e9c5146102f257610107565b806342842e0e146102205780636352211e1461023c57806370a082311461026c57610107565b80630a86b88b116100e55780630a86b88b1461018857806323b872dd146101b85780633129e773146101d457806340b4ad441461020457610107565b806301ffc9a71461010c578063081812fc1461013c578063095ea7b31461016c575b600080fd5b6101266004803603610121919081019061150e565b610322565b6040516101339190611727565b60405180910390f35b61015660048036036101519190810190611560565b610389565b60405161016391906116c0565b60405180910390f35b610186600480360361018191908101906114d2565b6103da565b005b6101a2600480360361019d9190810190611483565b61051f565b6040516101af9190611727565b60405180910390f35b6101d260048036036101cd919081019061131a565b610655565b005b6101ee60048036036101e99190810190611560565b61067a565b6040516101fb9190611762565b60405180910390f35b61021e600480360361021991908101906113e4565b610726565b005b61023a6004803603610235919081019061131a565b610742565b005b61025660048036036102519190810190611560565b610831565b60405161026391906116c0565b60405180910390f35b610286600480360361028191908101906112b5565b6108af565b604051610293919061177d565b60405180910390f35b6102b660048036036102b19190810190611447565b61093a565b005b6102c0610a37565b6040516102cd919061177d565b60405180910390f35b6102f060048036036102eb9190810190611369565b610a41565b005b61030c600480360361030791908101906112de565b610a69565b6040516103199190611727565b60405180910390f35b6000806000837bffffffffffffffffffffffffffffffffffffffffffffffffffffffff19167bffffffffffffffffffffffffffffffffffffffffffffffffffffffff1916815260200190815260200160002060009054906101000a900460ff169050919050565b600061039482610afd565b151561039f57600080fd5b6002600083815260200190815260200160002060009054906101000a900473ffffffffffffffffffffffffffffffffffffffff169050919050565b60006103e582610831565b90508073ffffffffffffffffffffffffffffffffffffffff168373ffffffffffffffffffffffffffffffffffffffff161415151561042257600080fd5b8073ffffffffffffffffffffffffffffffffffffffff163373ffffffffffffffffffffffffffffffffffffffff16148061046257506104618133610a69565b5b151561046d57600080fd5b826002600084815260200190815260200160002060006101000a81548173ffffffffffffffffffffffffffffffffffffffff021916908373ffffffffffffffffffffffffffffffffffffffff160217905550818373ffffffffffffffffffffffffffffffffffffffff168273ffffffffffffffffffffffffffffffffffffffff167f8c5be1e5ebec7d5bd14f71427d1e84f3dd0314c0f7b2291e5b200ac8c7c3b92560405160405180910390a4505050565b6000600960008154809291906001019190505550600060095490506105448582610b6f565b61054c6111a2565b6080604051908101604052808381526020018681526020018581526020018773ffffffffffffffffffffffffffffffffffffffff1681525090506007819080600181540180825580915050906001820390600052602060002090600402016000909192909190915060008201518160000155602082015181600101556040820151816002015560608201518160030160006101000a81548173ffffffffffffffffffffffffffffffffffffffff021916908373ffffffffffffffffffffffffffffffffffffffff16021790555050505060085460066000848152602001908152602001600020819055506008600081548092919060010191905055506001925050509392505050565b61065f3382610cb9565b151561066a57600080fd5b610675838383610d4e565b505050565b6106826111a2565b60078281548110151561069157fe5b9060005260206000209060040201608060405190810160405290816000820154815260200160018201548152602001600282015481526020016003820160009054906101000a900473ffffffffffffffffffffffffffffffffffffffff1673ffffffffffffffffffffffffffffffffffffffff1673ffffffffffffffffffffffffffffffffffffffff16815250509050919050565b610731848484610742565b61073c838583610742565b50505050565b600073ffffffffffffffffffffffffffffffffffffffff168273ffffffffffffffffffffffffffffffffffffffff16141515156107b4576040517f08c379a00000000000000000000000000000000000000000000000000000000081526004016107ab90611742565b60405180910390fd5b600060066000838152602001908152602001600020549050826007828154811015156107dc57fe5b906000526020600020906004020160030160006101000a81548173ffffffffffffffffffffffffffffffffffffffff021916908373ffffffffffffffffffffffffffffffffffffffff16021790555050505050565b6000806001600084815260200190815260200160002060009054906101000a900473ffffffffffffffffffffffffffffffffffffffff169050600073ffffffffffffffffffffffffffffffffffffffff168173ffffffffffffffffffffffffffffffffffffffff16141515156108a657600080fd5b80915050919050565b60008073ffffffffffffffffffffffffffffffffffffffff168273ffffffffffffffffffffffffffffffffffffffff16141515156108ec57600080fd5b610933600360008473ffffffffffffffffffffffffffffffffffffffff1673ffffffffffffffffffffffffffffffffffffffff168152602001908152602001600020610f15565b9050919050565b80600560003373ffffffffffffffffffffffffffffffffffffffff1673ffffffffffffffffffffffffffffffffffffffff16815260200190815260200160002060008473ffffffffffffffffffffffffffffffffffffffff1673ffffffffffffffffffffffffffffffffffffffff16815260200190815260200160002060006101000a81548160ff0219169083151502179055508173ffffffffffffffffffffffffffffffffffffffff163373ffffffffffffffffffffffffffffffffffffffff167f17307eab39ab6107e8899845ad3d59bd9653f200f220920489ca2b5937696c3183604051610a2b9190611727565b60405180910390a35050565b6000600854905090565b610a4c848484610655565b610a5884848484610f23565b1515610a6357600080fd5b50505050565b6000600560008473ffffffffffffffffffffffffffffffffffffffff1673ffffffffffffffffffffffffffffffffffffffff16815260200190815260200160002060008373ffffffffffffffffffffffffffffffffffffffff1673ffffffffffffffffffffffffffffffffffffffff16815260200190815260200160002060009054906101000a900460ff16905092915050565b6000806001600084815260200190815260200160002060009054906101000a900473ffffffffffffffffffffffffffffffffffffffff169050600073ffffffffffffffffffffffffffffffffffffffff168173ffffffffffffffffffffffffffffffffffffffff161415915050919050565b600073ffffffffffffffffffffffffffffffffffffffff168273ffffffffffffffffffffffffffffffffffffffff1614151515610bab57600080fd5b610bb481610afd565b151515610bc057600080fd5b816001600083815260200190815260200160002060006101000a81548173ffffffffffffffffffffffffffffffffffffffff021916908373ffffffffffffffffffffffffffffffffffffffff160217905550610c59600360008473ffffffffffffffffffffffffffffffffffffffff1673ffffffffffffffffffffffffffffffffffffffff168152602001908152602001600020611074565b808273ffffffffffffffffffffffffffffffffffffffff16600073ffffffffffffffffffffffffffffffffffffffff167fddf252ad1be2c89b69c2b068fc378daa952ba7f163c4a11628f55a4df523b3ef60405160405180910390a45050565b600080610cc583610831565b90508073ffffffffffffffffffffffffffffffffffffffff168473ffffffffffffffffffffffffffffffffffffffff161480610d3457508373ffffffffffffffffffffffffffffffffffffffff16610d1c84610389565b73ffffffffffffffffffffffffffffffffffffffff16145b80610d455750610d448185610a69565b5b91505092915050565b8273ffffffffffffffffffffffffffffffffffffffff16610d6e82610831565b73ffffffffffffffffffffffffffffffffffffffff16141515610d9057600080fd5b600073ffffffffffffffffffffffffffffffffffffffff168273ffffffffffffffffffffffffffffffffffffffff1614151515610dcc57600080fd5b610dd58161108a565b610e1c600360008573ffffffffffffffffffffffffffffffffffffffff1673ffffffffffffffffffffffffffffffffffffffff16815260200190815260200160002061114a565b610e63600360008473ffffffffffffffffffffffffffffffffffffffff1673ffffffffffffffffffffffffffffffffffffffff168152602001908152602001600020611074565b816001600083815260200190815260200160002060006101000a81548173ffffffffffffffffffffffffffffffffffffffff021916908373ffffffffffffffffffffffffffffffffffffffff160217905550808273ffffffffffffffffffffffffffffffffffffffff168473ffffffffffffffffffffffffffffffffffffffff167fddf252ad1be2c89b69c2b068fc378daa952ba7f163c4a11628f55a4df523b3ef60405160405180910390a4505050565b600081600001549050919050565b6000610f448473ffffffffffffffffffffffffffffffffffffffff1661116d565b1515610f53576001905061106c565b60008473ffffffffffffffffffffffffffffffffffffffff1663150b7a02338887876040518563ffffffff167c0100000000000000000000000000000000000000000000000000000000028152600401610fb094939291906116db565b602060405180830381600087803b158015610fca57600080fd5b505af1158015610fde573d6000803e3d6000fd5b505050506040513d601f19601f820116820180604052506110029190810190611537565b905063150b7a027c0100000000000000000000000000000000000000000000000000000000027bffffffffffffffffffffffffffffffffffffffffffffffffffffffff1916817bffffffffffffffffffffffffffffffffffffffffffffffffffffffff1916149150505b949350505050565b6001816000016000828254019250508190555050565b600073ffffffffffffffffffffffffffffffffffffffff166002600083815260200190815260200160002060009054906101000a900473ffffffffffffffffffffffffffffffffffffffff1673ffffffffffffffffffffffffffffffffffffffff161415156111475760006002600083815260200190815260200160002060006101000a81548173ffffffffffffffffffffffffffffffffffffffff021916908373ffffffffffffffffffffffffffffffffffffffff1602179055505b50565b6111626001826000015461118090919063ffffffff16565b816000018190555050565b600080823b905060008111915050919050565b600082821115151561119157600080fd5b600082840390508091505092915050565b608060405190810160405280600081526020016000801916815260200160008019168152602001600073ffffffffffffffffffffffffffffffffffffffff1681525090565b60006111f38235611870565b905092915050565b60006112078235611882565b905092915050565b600061121b823561188e565b905092915050565b600061122f8235611898565b905092915050565b60006112438251611898565b905092915050565b600082601f830112151561125e57600080fd5b813561127161126c826117c5565b611798565b9150808252602083016020830185838301111561128d57600080fd5b611298838284611924565b50505092915050565b60006112ad82356118e4565b905092915050565b6000602082840312156112c757600080fd5b60006112d5848285016111e7565b91505092915050565b600080604083850312156112f157600080fd5b60006112ff858286016111e7565b9250506020611310858286016111e7565b9150509250929050565b60008060006060848603121561132f57600080fd5b600061133d868287016111e7565b935050602061134e868287016111e7565b925050604061135f868287016112a1565b9150509250925092565b6000806000806080858703121561137f57600080fd5b600061138d878288016111e7565b945050602061139e878288016111e7565b93505060406113af878288016112a1565b925050606085013567ffffffffffffffff8111156113cc57600080fd5b6113d88782880161124b565b91505092959194509250565b600080600080608085870312156113fa57600080fd5b6000611408878288016111e7565b9450506020611419878288016111e7565b935050604061142a878288016112a1565b925050606061143b878288016112a1565b91505092959194509250565b6000806040838503121561145a57600080fd5b6000611468858286016111e7565b9250506020611479858286016111fb565b9150509250929050565b60008060006060848603121561149857600080fd5b60006114a6868287016111e7565b93505060206114b78682870161120f565b92505060406114c88682870161120f565b9150509250925092565b600080604083850312156114e557600080fd5b60006114f3858286016111e7565b9250506020611504858286016112a1565b9150509250929050565b60006020828403121561152057600080fd5b600061152e84828501611223565b91505092915050565b60006020828403121561154957600080fd5b600061155784828501611237565b91505092915050565b60006020828403121561157257600080fd5b6000611580848285016112a1565b91505092915050565b611592816118ee565b82525050565b6115a18161181e565b82525050565b6115b08161181e565b82525050565b6115bf81611830565b82525050565b6115ce8161183c565b82525050565b60006115df826117f1565b6115e981856117fc565b93506115f9818560208601611933565b61160281611966565b840191505092915050565b600061161a60158361180d565b91507f5f746f206d757374206265206e6f6e2d7a65726f2e00000000000000000000006000830152602082019050919050565b60808201600082015161166360008501826116a2565b50602082015161167660208501826115c5565b50604082015161168960408501826115c5565b50606082015161169c6060850182611598565b50505050565b6116ab81611866565b82525050565b6116ba81611866565b82525050565b60006020820190506116d560008301846115a7565b92915050565b60006080820190506116f06000830187611589565b6116fd60208301866115a7565b61170a60408301856116b1565b818103606083015261171c81846115d4565b905095945050505050565b600060208201905061173c60008301846115b6565b92915050565b6000602082019050818103600083015261175b8161160d565b9050919050565b6000608082019050611777600083018461164d565b92915050565b600060208201905061179260008301846116b1565b92915050565b6000604051905081810181811067ffffffffffffffff821117156117bb57600080fd5b8060405250919050565b600067ffffffffffffffff8211156117dc57600080fd5b601f19601f8301169050602081019050919050565b600081519050919050565b600082825260208201905092915050565b600082825260208201905092915050565b600061182982611846565b9050919050565b60008115159050919050565b6000819050919050565b600073ffffffffffffffffffffffffffffffffffffffff82169050919050565b6000819050919050565b600061187b826118c4565b9050919050565b60008115159050919050565b6000819050919050565b60007fffffffff0000000000000000000000000000000000000000000000000000000082169050919050565b600073ffffffffffffffffffffffffffffffffffffffff82169050919050565b6000819050919050565b60006118f982611900565b9050919050565b600061190b82611912565b9050919050565b600061191d82611846565b9050919050565b82818337600083830152505050565b60005b83811015611951578082015181840152602081019050611936565b83811115611960576000848401525b50505050565b6000601f19601f830116905091905056fea265627a7a72305820d4f5e5e6af1749cf192ccbafabc042566fac55825424dbc9e548ec4368bddd016c6578706572696d656e74616cf50037",
  "source": "pragma solidity ^0.5.4;\r\npragma experimental ABIEncoderV2;\r\n\r\nimport \"openzeppelin-solidity/contracts/math/SafeMath.sol\";\r\nimport \"openzeppelin-solidity/contracts/utils/Address.sol\";\r\nimport \"openzeppelin-solidity/contracts/introspection/IERC165.sol\";\r\nimport \"openzeppelin-solidity/contracts/token/ERC721/ERC721.sol\";\r\n\r\n// A sample implementation of core ERC1155 function.\r\ncontract ERC721Dudes is ERC721\r\n{\r\n    struct ItemStruct {\r\n        uint256 tokenId;\r\n        bytes32 fileHash;\r\n        bytes32 descriptionHash;\r\n        address owner;\r\n    }\r\n\r\n    using SafeMath for uint256;\r\n    using Address for address;\r\n\r\n    // owner => (operator => approved)\r\n    mapping (address => mapping(address => bool)) internal operatorApproval;\r\n    //mapping(address => UserStruct) ownedItems;\r\n    mapping(uint256 => uint) itemIndexes;\r\n\r\n    ItemStruct[] allItems;\r\n    uint allItemsLength;\r\n    uint256 nonse;\r\n\r\n    function safeTransferFrom(address _from, address _to, uint256 _id) public {\r\n\r\n        require(_to != address(0x0), \"_to must be non-zero.\");\r\n        //require(_from == msg.sender || operatorApproval[_from][msg.sender] == true, \"Need operator approval for 3rd party transfers.\");\r\n\r\n        \r\n        uint index = itemIndexes[_id];\r\n\r\n        allItems[index].owner = _to;\r\n    }\r\n\r\n    function exchangeTokens(address _user1, address _user2, uint256 _id1, uint256 _id2) public {\r\n\r\n        safeTransferFrom(_user1, _user2, _id1);\r\n        safeTransferFrom(_user2, _user1, _id2);\r\n    }\r\n\r\n    function getItem(uint index) public view returns (ItemStruct memory) {\r\n        return allItems[index];\r\n    }\r\n\r\n    function getAllItemsLength() public view returns (uint) {\r\n        return allItemsLength;\r\n    }\r\n\r\n    /**\r\n        @notice Enable or disable approval for a third party (\"operator\") to manage all of the caller's tokens.\r\n        @dev MUST emit the ApprovalForAll event on success.\r\n        @param _operator  Address to add to the set of authorized operators\r\n        @param _approved  True if the operator is approved, false to revoke approval\r\n    */\r\n    function setApprovalForAll(address _operator, bool _approved) public {\r\n        operatorApproval[msg.sender][_operator] = _approved;\r\n        emit ApprovalForAll(msg.sender, _operator, _approved);\r\n    }\r\n\r\n    /**\r\n        @notice Queries the approval status of an operator for a given owner.\r\n        @param _owner     The owner of the Tokens\r\n        @param _operator  Address of authorized operator\r\n        @return           True if the operator is approved, false if not\r\n    */\r\n    function isApprovedForAll(address _owner, address _operator) public view returns (bool) {\r\n        return operatorApproval[_owner][_operator];\r\n    }\r\n\r\n    function mintWithTokenHash(address to, bytes32 fileHash, bytes32 descriptionHash) public returns (bool) {\r\n\r\n        nonse++;\r\n\r\n        uint256 tokenId = nonse;\r\n        \r\n        _mint(to, tokenId);\r\n\r\n        ItemStruct memory item = ItemStruct(tokenId, fileHash, descriptionHash, to);\r\n\r\n        allItems.push(item);\r\n        itemIndexes[tokenId] = allItemsLength;\r\n        allItemsLength++;\r\n\r\n        return true;\r\n    }\r\n\r\n    // function deleteUserAsset(address user, uint256 tokenId) private {\r\n    //     UserStruct storage u = ownedItems[user];\r\n    //     uint rowToDelete = u.assetPointers[tokenId];\r\n    //     u.assets[rowToDelete] = u.assets[u.assets.length-1];\r\n    //     u.hashes[rowToDelete] = u.hashes[u.hashes.length-1];\r\n    //     u.assets.length--;\r\n    //     u.hashes.length--;\r\n    // }\r\n\r\n    // function addUserAsset(address user, uint256 tokenId, bytes32 value) private {\r\n    //     ownedItems[user].assets.push(tokenId);\r\n    //     ownedItems[user].hashes.push(value);\r\n    //     ownedItems[user].assetPointers[tokenId] = ownedItems[user].assets.length - 1;\r\n    // }\r\n}",
  "sourcePath": "C:/Projects/Finturi/BlockDudes/Eth/contracts/ERC721/ERC721Dudes.sol",
  "compiler": {
    "name": "solc",
    "version": "0.5.4+commit.9549d8ff.Emscripten.clang"
  },
  "schemaVersion": "3.0.6",
  "updatedAt": "2019-04-13T14:25:19.754Z",
  "devdoc": {
    "methods": {
      "approve(address,uint256)": {
        "details": "Approves another address to transfer the given token ID The zero address indicates there is no approved address. There can only be one approved address per token at a given time. Can only be called by the token owner or an approved operator.",
        "params": {
          "to": "address to be approved for the given token ID",
          "tokenId": "uint256 ID of the token to be approved"
        }
      },
      "balanceOf(address)": {
        "details": "Gets the balance of the specified address",
        "params": {
          "owner": "address to query the balance of"
        },
        "return": "uint256 representing the amount owned by the passed address"
      },
      "getApproved(uint256)": {
        "details": "Gets the approved address for a token ID, or zero if no address set Reverts if the token ID does not exist.",
        "params": {
          "tokenId": "uint256 ID of the token to query the approval of"
        },
        "return": "address currently approved for the given token ID"
      },
      "isApprovedForAll(address,address)": {
        "params": {
          "_operator": "Address of authorized operator\r",
          "_owner": "The owner of the Tokens\r"
        },
        "return": "True if the operator is approved, false if not\r"
      },
      "ownerOf(uint256)": {
        "details": "Gets the owner of the specified token ID",
        "params": {
          "tokenId": "uint256 ID of the token to query the owner of"
        },
        "return": "address currently marked as the owner of the given token ID"
      },
      "safeTransferFrom(address,address,uint256,bytes)": {
        "details": "Safely transfers the ownership of a given token ID to another address If the target address is a contract, it must implement `onERC721Received`, which is called upon a safe transfer, and return the magic value `bytes4(keccak256(\"onERC721Received(address,address,uint256,bytes)\"))`; otherwise, the transfer is reverted. Requires the msg.sender to be the owner, approved, or operator",
        "params": {
          "_data": "bytes data to send along with a safe transfer check",
          "from": "current owner of the token",
          "to": "address to receive the ownership of the given token ID",
          "tokenId": "uint256 ID of the token to be transferred"
        }
      },
      "setApprovalForAll(address,bool)": {
        "details": "MUST emit the ApprovalForAll event on success.\r",
        "params": {
          "_approved": "True if the operator is approved, false to revoke approval\r",
          "_operator": "Address to add to the set of authorized operators\r"
        }
      },
      "supportsInterface(bytes4)": {
        "details": "implement supportsInterface(bytes4) using a lookup table"
      },
      "transferFrom(address,address,uint256)": {
        "details": "Transfers the ownership of a given token ID to another address Usage of this method is discouraged, use `safeTransferFrom` whenever possible Requires the msg.sender to be the owner, approved, or operator",
        "params": {
          "from": "current owner of the token",
          "to": "address to receive the ownership of the given token ID",
          "tokenId": "uint256 ID of the token to be transferred"
        }
      }
    }
  },
  "userdoc": {
    "methods": {
      "isApprovedForAll(address,address)": {
        "notice": "Queries the approval status of an operator for a given owner.\r"
      },
      "setApprovalForAll(address,bool)": {
        "notice": "Enable or disable approval for a third party (\"operator\") to manage all of the caller's tokens.\r"
      }
    }
  }
}